:020000040800F2
:1000000000000220751800088112000889120008FB
:100010009112000899120008A112000800000000C7
:10002000000000000000000000000000A91200080D
:10003000B712000800000000C5120008D312000823
:10004000C5180008C5180008C5180008C51800081C
:10005000C5180008C5180008C5180008C51800080C
:10006000C5180008C5180008C5180008C5180008FC
:10007000C5180008C5180008C5180008C5180008EC
:10008000C5180008C5180008C5180008C5180008DC
:10009000C5180008C5180008C5180008C5180008CC
:1000A000C5180008C5180008C5180008C5180008BC
:1000B000C5180008C5180008C5180008C5180008AC
:1000C000C5180008C5180008C5180008C51800089C
:1000D000C5180008E5120008C5180008C518000872
:1000E000C5180008C5180008C5180008C51800087C
:1000F000C5180008C5180008C5180008C51800086C
:10010000C5180008C5180008C5180008C51800085B
:10011000C5180008C51800080D13000821130008B1
:10012000C5180008C518000835130008C5180008D0
:10013000C5180008C5180008C5180008C51800082B
:10014000C5180008C5180008C5180008C51800081B
:10015000C5180008C518000849130008C51800088C
:10016000C5180008C5180008C5180008C5180008FB
:10017000C5180008C5180008C518000800000000D0
:08018000C5180008C5180008AD
:1001900010B5054C237833B9044B13B10448AFF3C1
:1001A00000800123237010BD040200200000000025
:1001B00004AA000808B5034B1BB103490348AFF379
:1001C000008008BD000000000802002004AA00080A
:1001D00010F8012B11F8013B012A28BF9A42F7D0F1
:1001E000D01A70470000000000000000000000006E
:1001F00001F0FF01102A2BDB10F0070F08D010F8D8
:10020000013B013A8B422DD010F0070F42B3F6D1DB
:10021000F0B441EA012141EA014122F007047FF0F4
:1002200000070023F0E80256083C85EA010586EA4B
:10023000010685FA47F5A3FA87F586FA47F6A5FA87
:1002400087F68EB9EED1F0BC01F0FF0102F0070293
:1002500032B110F8013B013A83EA010313B1F8D13E
:100260000020704701387047002D06BF354603381F
:10027000073815F0010F07D1013015F4807F02BF58
:10028000013015F4C03F0130F0BC0138704700BFA9
:10029000034613F8012B002AFBD1181A01387047C6
:1002A00081F0004102E000BF83F0004330B54FEA27
:1002B00041044FEA430594EA050F08BF90EA020F94
:1002C0001FBF54EA000C55EA020C7FEA645C7FEA27
:1002D000655C00F0E2804FEA5454D4EB5555B8BF4A
:1002E0006D420CDD2C4480EA020281EA030382EABB
:1002F000000083EA010180EA020281EA0303362D4D
:1003000088BF30BD11F0004F4FEA01314FF4801C1F
:100310004CEA113102D0404261EB410113F0004F31
:100320004FEA03334CEA133302D0524263EB4303E8
:1003300094EA050F00F0A780A4F10104D5F1200E86
:100340000DDB02FA0EFC22FA05F2801841F10001E1
:1003500003FA0EF2801843FA05F359410EE0A5F1B5
:1003600020050EF1200E012A03FA0EFC28BF4CF0E6
:10037000020C43FA05F3C01851EBE37101F000459C
:1003800007D54FF0000EDCF1000C7EEB00006EEBA9
:100390000101B1F5801F1BD3B1F5001F0CD3490833
:1003A0005FEA30004FEA3C0C04F101044FEA44528A
:1003B00012F5800F80F09A80BCF1004F08BF5FEA11
:1003C000500C50F1000041EB045141EA050130BDF1
:1003D0005FEA4C0C404141EB0101013C28BFB1F503
:1003E000801FE9D291F0000F04BF01460020B1FA4E
:1003F00081F308BF2033A3F10B03B3F120020CDA21
:100400000C3208DD02F1140CC2F10C0201FA0CF0FE
:1004100021FA02F10CE002F11402D8BFC2F1200C63
:1004200001FA02F120FA0CFCDCBF41EA0C01904019
:10043000E41AA2BF01EB0451294330BD6FEA040462
:100440001F3C1CDA0C340EDC04F11404C4F120024D
:1004500020FA04F001FA02F340EA030021FA04F35F
:1004600045EA030130BDC4F10C04C4F1200220FAB6
:1004700002F001FA04F340EA0300294630BD21FAF4
:1004800004F0294630BD94F0000F83F4801306BFBA
:1004900081F480110134013D4EE77FEA645C18BFAE
:1004A0007FEA655C29D094EA050F08BF90EA020F45
:1004B00005D054EA000C04BF1946104630BD91EA3D
:1004C000030F1EBF0021002030BD5FEA545C05D140
:1004D0004000494128BF41F0004130BD14F580047F
:1004E0003CBF01F5801130BD01F0004545F0FE41F3
:1004F00041F470014FF0000030BD7FEA645C1ABF28
:10050000194610467FEA655C1CBF0B46024650EA5E
:10051000013406BF52EA033591EA030F41F400218A
:1005200030BD00BF90F0000F04BF0021704730B510
:100530004FF4806404F132044FF000054FF00001E5
:1005400050E700BF90F0000F04BF0021704730B5A6
:100550004FF4806404F1320410F0004548BF40427B
:100560004FF000013EE700BF42004FEAE2014FEAD0
:1005700031014FEA02701FBF12F07F4393F07F4FAB
:1005800081F06051704732F07F4208BF704793F0AE
:100590007F4F04BF41F40021704730B54FF46074C1
:1005A00001F0004521F000411CE700BF50EA0102C4
:1005B00008BF704730B54FF000050AE050EA01026D
:1005C00008BF704730B511F0004502D5404261EBDD
:1005D00041014FF4806404F132045FEA915C3FF41E
:1005E000D8AE4FF003025FEADC0C18BF03325FEABB
:1005F000DC0C18BF033202EBDC02C2F1200300FA6C
:1006000003FC20FA02F001FA03FE40EA0E0021FA90
:1006100002F11444BDE600BF70B54FF0FF0C4CF47E
:10062000E06C1CEA11541DBF1CEA135594EA0C0F30
:1006300095EA0C0F00F0DEF82C4481EA030621EA6B
:100640004C5123EA4C5350EA013518BF52EA0335A6
:1006500041F4801143F4801338D0A0FB02CE4FF058
:100660000005E1FB02E506F00042E0FB03E54FF088
:100670000006E1FB03569CF0000F18BF4EF0010E80
:10068000A4F1FF04B6F5007F64F5407404D25FEA7C
:100690004E0E6D4146EB060642EAC62141EA55512F
:1006A0004FEAC52040EA5E504FEACE2EB4F1FD0C71
:1006B00088BFBCF5E06F1ED8BEF1004F08BF5FEAEF
:1006C000500E50F1000041EB045170BD06F00046A1
:1006D00046EA010140EA020081EA0301B4EB5C044E
:1006E000C2BFD4EB0C0541EA045170BD41F4801146
:1006F0004FF0000E013C00F3AB8014F1360FDEBF6B
:10070000002001F0004170BDC4F10004203C35DA46
:100710000C341BDC04F11404C4F1200500FA05F3C9
:1007200020FA04F001FA05F240EA020001F000426A
:1007300021F0004110EBD37021FA04F642EB0601E0
:100740005EEA430E08BF20EAD37070BDC4F10C040A
:10075000C4F1200500FA04F320FA05F001FA04F2CE
:1007600040EA020001F0004110EBD37041F10001BA
:100770005EEA430E08BF20EAD37070BDC4F12005C5
:1007800000FA05F24EEA020E20FA04F301FA05F22D
:1007900043EA020321FA04F001F0004121FA04F2D5
:1007A00020EA020000EBD3705EEA430E08BF20EAA5
:1007B000D37070BD94F0000F0FD101F000464000DF
:1007C00041EB010111F4801F08BF013CF7D041EA61
:1007D000060195F0000F18BF704703F00046520065
:1007E00043EB030313F4801F08BF013DF7D043EA36
:1007F0000603704794EA0C0F0CEA135518BF95EAEC
:100800000C0F0CD050EA410618BF52EA4306D1D172
:1008100081EA030101F000414FF0000070BD50EA91
:10082000410606BF1046194652EA430619D094EA1B
:100830000C0F02D150EA013613D195EA0C0F05D105
:1008400052EA03361CBF104619460AD181EA030159
:1008500001F0004141F0FE4141F470014FF0000011
:1008600070BD41F0FE4141F4780170BD70B54FF0AC
:10087000FF0C4CF4E06C1CEA11541DBF1CEA13552C
:1008800094EA0C0F95EA0C0F00F0A7F8A4EB05040E
:1008900081EA030E52EA03354FEA013100F0888005
:1008A0004FEA03334FF0805545EA131343EA1263CE
:1008B0004FEA022245EA111545EA10654FEA002683
:1008C0000EF000419D4208BF964244F1FD0404F53C
:1008D000407402D25B084FEA3202B61A65EB030598
:1008E0005B084FEA32024FF480104FF4002CB6EB55
:1008F000020E75EB030E22BFB61A754640EA0C00D5
:100900005B084FEA3202B6EB020E75EB030E22BF14
:10091000B61A754640EA5C005B084FEA3202B6EB55
:10092000020E75EB030E22BFB61A754640EA9C0014
:100930005B084FEA3202B6EB020E75EB030E22BFE4
:10094000B61A754640EADC0055EA060E18D04FEAA2
:10095000051545EA16754FEA06164FEAC30343EA42
:1009600052734FEAC2025FEA1C1CC0D111F4801F0F
:100970000BD141EA00014FF000004FF0004CB6E708
:1009800011F4801F04BF01430020B4F1FD0C88BFA7
:10099000BCF5E06F3FF6AFAEB5EB030C04BFB6EBB2
:1009A000020C5FEA500C50F1000041EB045170BDA5
:1009B0000EF0004E4EEA113114EB5C04C2BFD4EBD2
:1009C0000C0541EA045170BD41F480114FF0000E56
:1009D000013C90E645EA060E8DE60CEA135594EAD2
:1009E0000C0F08BF95EA0C0F3FF43BAF94EA0C0FD5
:1009F0000AD150EA01347FF434AF95EA0C0F7FF44A
:100A000025AF104619462CE795EA0C0F06D152EA9D
:100A100003353FF4FDAE1046194622E750EA410681
:100A200018BF52EA43067FF4C5AE50EA41047FF492
:100A30000DAF52EA43057FF4EBAE12E74FF0FF3CF7
:100A400006E000BF4FF0010C02E000BF4FF0010CC8
:100A50004DF804CD4FEA410C7FEA6C5C4FEA430C41
:100A600018BF7FEA6C5C1BD001B050EA410C0CBF90
:100A700052EA430C91EA030F02BF90EA020F0020F2
:100A8000704710F1000F91EA030F58BF994208BF59
:100A900090422CBFD8176FEAE37040F00100704716
:100AA0004FEA410C7FEA6C5C02D150EA013C07D16D
:100AB0004FEA430C7FEA6C5CD6D152EA033CD3D0B8
:100AC0005DF8040B704700BF8446104662468C46B2
:100AD0001946634600E000BF01B5FFF7B7FF0028E5
:100AE00048BF10F1000F01BD4DF808EDFFF7F4FF0E
:100AF0000CBF012000205DF808FB00BF4DF808ED99
:100B0000FFF7EAFF34BF012000205DF808FB00BFBB
:100B10004DF808EDFFF7E0FF94BF012000205DF8DD
:100B200008FB00BF4DF808EDFFF7CEFF94BF012092
:100B300000205DF808FB00BF4DF808EDFFF7C4FF8B
:100B400034BF012000205DF808FB00BF4FEA410CD4
:100B50007FEA6C5C02D150EA013C0AD14FEA430CB7
:100B60007FEA6C5C02D152EA033C02D14FF00000F4
:100B700070474FF0010070474FEA410212F5001232
:100B800015D211D56FF47873B3EB625212D94FEAD4
:100B9000C12343F0004343EA505311F0004F23FABE
:100BA00002F018BF404270474FF00000704750EA13
:100BB000013005D111F0004008BF6FF000407047D0
:100BC0004FF00000704700BF4A0011D212F500122A
:100BD00011D20DD56FF47873B3EB62520ED44FEA95
:100BE000C12343F0004343EA505323FA02F0704715
:100BF0004FF00000704750EA013002D14FF0FF3053
:100C000070474FF0000070474FEA4102B2F1E043F5
:100C100024BFB3F5001CDCF1FE5C0DD901F0004CE3
:100C20004FEAC0024CEA5070B2F1004F40EB830033
:100C300008BF20F00100704711F0804F21D113F15F
:100C40003872BCBF01F00040704741F480114FEA98
:100C50005252C2F11802C2F1200C10FA0CF320FA21
:100C600002F018BF40F001004FEAC1234FEAD3233E
:100C700003FA0CFC40EA0C0023FA02F34FEA4303A8
:100C8000CCE77FEA625307D150EA01331EBF4FF031
:100C9000FE4040F44000704701F0004040F0FE404C
:100CA00040F40000704700BF53B94AB9002908BF9B
:100CB00000281CBF4FF0FF314FF0FF3000F0BEB9ED
:100CC000ADF1080C6DE904CE00F03CF8DDF804E06D
:100CD000DDE9022304B0704738B500220023044642
:100CE0000D46FFF70BFF28B920462946BDE83840DE
:100CF00000F00AB8204605F1004100F005F8404236
:100D000061EB410138BD00BFD0B50C4B0022064657
:100D10000F46FFF781FCFFF757FF0446FFF702FC81
:100D2000074B0022FFF778FC02460B463046394657
:100D3000FFF7BAFAFFF748FF2146D0BD0000F03DAB
:100D40000000F0412DE9F047089D8E460446884694
:100D5000002B4AD18A42174662D9B2FA82F64EB1C6
:100D6000C6F1200301FA06F820FA03F3B74043EA7C
:100D70000808B4404FEA174E1FFA87FCB8FBFEF193
:100D8000230C0EFB118843EA084301FB0CF29A4244
:100D900009D9FB1801F1FF3080F0EA809A4240F255
:100DA000E78002393B449A1AA3B2B2FBFEF00EFB75
:100DB000102243EA024300FB0CFC9C4509D9FB18B6
:100DC00000F1FF3280F0D6809C4540F2D3803B4456
:100DD000023840EA0140A3EB0C0300211DB1F340AF
:100DE0000022C5E90032BDE8F0878B4205D90DB17C
:100DF000C5E9000100210846F5E7B3FA83F10029AF
:100E000046D1734502D3824200F20581841A6EEB0B
:100E1000030201209046002DE5D0C5E90048E2E735
:100E2000002A00F09080B2FA82F6002E40F0A480F2
:100E30008A1A030C4FEA174E80B2BCB20121B2FBF2
:100E4000FEFC0EFB1C2243EA024304FB0CF29A4216
:100E500007D9FB180CF1FF3802D29A4200F2E08069
:100E6000C4469B1AB3FBFEF20EFB123340EA034367
:100E700002FB04F49C4207D9FB1802F1FF3002D2B6
:100E80009C4200F2CA8002461B1B42EA0C40A5E7C6
:100E9000C1F120068B4022FA06F71F430EFA01F437
:100EA00020FA06F32EFA06FE4FEA1749234300FA0A
:100EB00001F81FFA87FCBEFBF9F01C0C09FB10EED1
:100EC00044EA0E4400FB0CFEA64502FA01F209D9E1
:100ED0003C1900F1FF3A80F09C80A64540F29980D1
:100EE00002383C44A4EB0E041FFA83FEB4FBF9F372
:100EF00009FB13444EEA044403FB0CFCA44508D947
:100F00003C1903F1FF3E80F08280A4457FD9023B6B
:100F10003C4443EA0040A4EB0C04A0FB02EC644513
:100F20007346E14662D35FD05DB1B8EB030264EB78
:100F3000090404FA06F622FA01F31E43CC40C5E97F
:100F4000006400214FE7B1FBF2FC010C41EA0E41C5
:100F500080B240EA01423B4638463C46B846BE466F
:100F60002026B1FBF7F1A2EB080241EA0C4166E74B
:100F7000014618E710462CE7C6F120022EFA02F3CC
:100F8000B740B14020FA02F24FEA174E0A43B3FBD2
:100F9000FEF8BCB20EFB1833110C41EA034108FB0A
:100FA00004F9B04089454FEA104380B23ED9791820
:100FB00008F1FF3C01D289451FD8A1EB0901B1FB23
:100FC000FEF909FB04F80EFB191192B242EA014244
:100FD000424529D2BA1809F1FF31C4D24245C2D2E2
:100FE000A9F102013A44BEE7F0459DD2BEEB0203EF
:100FF0006CEB070C0138E14696E7A7EB0909494479
:10100000A8F1020CB1FBFEF909FB04F8DBE773461B
:101010007FE7504666E70846FDE63B44023A33E781
:10102000ACF1020C3B441CE749469CE7A1EB0901EB
:10103000C446B1FBFEF909FB04F8C4E7704700BFE2
:1010400080B582B000AF00237B60104B1B6B0F4A52
:1010500043F4800313630D4B1B6B03F480037B602D
:101060007B68002200213A2000F07BFD3A2000F04E
:1010700094FD00220021462000F073FD462000F080
:101080008CFD00BF0837BD4680BD00BF0038024060
:1010900080B485B000AF0023FB60174B1B6B164A72
:1010A00043F004031363144B1B6B03F00403FB6056
:1010B000FB680023BB60104B1B6B0F4A43F080039F
:1010C00013630D4B1B6B03F08003BB60BB680023F5
:1010D0007B60094B1B6B084A43F001031363064B0B
:1010E0001B6B03F001037B607B6800BF1437BD46B8
:1010F0005DF8047B704700BF0038024080B582B0C5
:1011000000AF7860391D4FF6FF730122034802F0EB
:10111000F9FA7B6818460837BD4680BDB402002046
:1011200080B500AF00F0D0FB00F012F8FFF7B0FF81
:10113000FFF786FF00F0BEFA00F00AFA00F03EFA70
:1011400003F0CAFE03F0F1FE03F038FF00BFF9E739
:1011500080B594B000AF07F120033022002118467B
:1011600006F01CFF07F10C0300221A605A609A6017
:10117000DA601A610023BB60284B1B6C274A43F0DE
:1011800080531364254B1B6C03F08053BB60BB681A
:1011900000237B60224B1B68214A43F48043136089
:1011A0001F4B1B6803F480437B607B6801233B6219
:1011B0004FF480337B620223BB634FF48003FB63F5
:1011C00004233B64A8237B640223BB640423FB64E5
:1011D00007F12003184601F099FA0346002B01D0CD
:1011E00000F020F80F23FB6002233B6100237B61AA
:1011F0004FF4A053BB614FF48053FB6107F10C0324
:101200000521184601F0FAFC0346002B01D000F03E
:1012100009F800BF5037BD4680BD00BF003802400E
:101220000070004080B400AF72B600BF00BFFDE7A1
:1012300080B483B000AF00237B60104B5B6C0F4A1F
:1012400043F4804353640D4B5B6C03F480437B6039
:101250007B6800233B60094B1B6C084A43F08053BA
:101260001364064B1B6C03F080533B603B6800BF6C
:101270000C37BD465DF8047B704700BF0038024064
:1012800080B400AF00BFFDE780B400AF00BFFDE752
:1012900080B400AF00BFFDE780B400AF00BFFDE742
:1012A00080B400AF00BFFDE780B400AF00BFBD4613
:1012B0005DF8047B704780B400AF00BFBD465DF8A9
:1012C000047B704780B400AF00BFBD465DF8047B6F
:1012D000704780B500AF00F049FB04F0DFFA00BFB3
:1012E00080BD000080B500AF074802F0ABFB064BA5
:1012F0001B681B6803F01003102B02D1024804F096
:10130000E7F900BF80BD00BFB402002080B500AF88
:10131000024801F053FF00BF80BD00BF240200203F
:1013200080B500AF024801F049FF00BF80BD00BF9B
:101330006C02002080B500AF024800F0E1FD00BF64
:1013400080BD00BFFC02002080B500AF024800F065
:10135000D7FD00BF80BD00BF5C03002080B582B018
:1013600000AF78607B68054A934202D1002004F008
:101370002DFB00BF0837BD4680BD00BF2402002002
:1013800080B582B000AF78607B68044A934201D197
:1013900003F0BAFF00BF0837BD4680BDB40200208D
:1013A00080B400AF01231846BD465DF8047B70474A
:1013B00080B582B000AF7860396006F0C3FE0346A6
:1013C00016221A604FF0FF3318460837BD4680BD1D
:1013D00080B582B000AF78604FF0FF317868FFF7DA
:1013E000E7FF00BFFDE780B586B000AFF860B960E9
:1013F0007A6000237B610AE0AFF300800146BB689E
:101400005A1CBA60CAB21A707B6901337B617A696F
:101410007B689A42F0DB7B6818461837BD4680BD72
:1014200080B586B000AFF860B9607A6000237B6158
:1014300009E0BB685A1CBA601B781846FFF75EFECD
:101440007B6901337B617A697B689A42F1DB7B6857
:1014500018461837BD4680BD80B483B000AF7860B1
:101460004FF0FF3318460C37BD465DF8047B7047DC
:1014700080B483B000AF786039603B684FF40052AD
:101480005A60002318460C37BD465DF8047B704750
:1014900080B483B000AF7860012318460C37BD4696
:1014A0005DF8047B704780B485B000AFF860B96028
:1014B0007A60002318461437BD465DF8047B7047F8
:1014C00080B586B000AF7860144A154BD31A7B61A3
:1014D0007B693B61134B1B68002B02D1114B124AF5
:1014E0001A60104B1A687B6813443A699A4207D213
:1014F00006F028FE03460C221A604FF0FF3309E085
:10150000084B1B68FB60074B1A687B681344054A4D
:101510001360FB6818461837BD4680BD00000220E6
:101520000004000020020020781B002080B400AFDF
:10153000064BD3F88830054A43F47003C2F888306C
:1015400000BFBD465DF8047B704700BF00ED00E0C2
:1015500080B582B000AF3B4600221A605A60154B3E
:10156000154A1A60134B42F2CF025A60114B002207
:101570009A60104B42F20F72DA600E4B00229A61B1
:101580000C4801F05BFD0346002B01D0FFF74AFE3B
:1015900000233B6000237B603B461946054801F071
:1015A000D1FF0346002B01D0FFF73CFE00BF0837F8
:1015B000BD4680BD240200200010004080B582B0EE
:1015C00000AF3B4600221A605A60154B154A1A605C
:1015D000134B53225A60124B00229A60104B40F278
:1015E000E732DA600E4B00229A610D4801F026FDC9
:1015F0000346002B01D0FFF715FE00233B600023BC
:101600007B603B461946064801F09CFF0346002BD1
:1016100001D0FFF707FE00BF0837BD4680BD00BF01
:101620006C0200200014004080B584B000AF7860E8
:101630007B681B681C4A934216D10023FB601B4B3E
:101640001B6C1A4A43F010031364184B1B6C03F015
:101650001003FB60FB6800220021362000F081FAB5
:10166000362000F09AFA1AE07B681B68104A934211
:1016700015D10023BB600D4B1B6C0C4A43F02003BB
:1016800013640A4B1B6C03F02003BB60BB68002291
:101690000021372000F065FA372000F07EFA00BF05
:1016A0001037BD4680BD00BF00100040003802402A
:1016B0000014004080B500AF114B124A1A60104B65
:1016C0004FF4E1325A600E4B00229A600C4B00221C
:1016D000DA600B4B00221A61094B0C225A61084B4D
:1016E00000229A61064B0022DA61054801F0BAFF38
:1016F0000346002B01D0FFF795FD00BF80BD00BF62
:10170000B40200200010014080B58AB000AF7860BC
:1017100007F1140300221A605A609A60DA601A61B5
:101720007B681B684C4A934240F0918000233B61E8
:101730004A4B5B6C494A43F010035364474B5B6C64
:1017400003F010033B613B690023FB60434B1B6BC1
:10175000424A43F001031363404B1B6B03F0010348
:10176000FB60FB684FF4C0637B610223BB61002315
:10177000FB6103233B6207237B6207F114031946D5
:10178000374800F027FE374B374A1A60354B4FF089
:1017900000625A60334B00229A60324B0022DA60BA
:1017A000304B4FF480621A612E4B00225A612D4B50
:1017B00000229A612B4B0022DA612A4B00221A6226
:1017C000284B00225A62274800F002FA0346002BF9
:1017D00001D0FFF727FD7B68224ADA63214A7B6844
:1017E0009363224B224A1A60204B4FF000625A60EA
:1017F0001E4B40229A601D4B0022DA601B4B4FF4B7
:1018000080621A61194B00225A61184B00229A61BA
:10181000164B0022DA61154B00221A62134B00228C
:101820005A62124800F0D4F90346002B01D0FFF7AA
:10183000F9FC7B680D4A9A630C4A7B68936300222B
:101840000021252000F08DF9252000F0A6F900BF29
:101850002837BD4680BD00BF00100140003802405F
:1018600000000240FC020020406402405C030020B3
:10187000B8640240DFF834D0FFF758FE0C480D4939
:101880000D4A002302E0D458C4500433C4188C42DB
:10189000F9D30A4A0A4C002301E013600432A24241
:1018A000FBD306F055FCFFF73BFC7047000002201D
:1018B000000000200402002030B2000804020020D2
:1018C000741B0020FEE7000080B500AF0E4B1B68C4
:1018D0000D4A43F4007313600B4B1B680A4A43F430
:1018E00080631360084B1B68074A43F480731360DE
:1018F000032000F02BF90F2000F008F8FFF798FC08
:101900000023184680BD00BF003C024080B582B075
:1019100000AF7860124B1A68124B1B7819464FF4CF
:101920007A73B3FBF1F3B2FBF3F3184600F043F91B
:101930000346002B01D001230EE07B680F2B0AD851
:10194000002279684FF0FF3000F00BF9064A7B68FF
:101950001360002300E0012318460837BD4680BD10
:1019600000000020080000200400002080B400AF28
:10197000064B1B781A46064B1B681344044A136037
:1019800000BFBD465DF8047B704700BF0800002023
:10199000BC03002080B400AF034B1B681846BD4653
:1019A0005DF8047B704700BFBC03002080B485B0A5
:1019B00000AF78607B6803F00703FB600C4BDB68CB
:1019C000BB60BA684FF6FF031340BB60FB681A02A6
:1019D000BB68134343F0BF6343F40033BB60044A66
:1019E000BB68D36000BF1437BD465DF8047B704709
:1019F00000ED00E080B400AF044BDB681B0A03F08D
:101A000007031846BD465DF8047B704700ED00E013
:101A100080B483B000AF0346FB7197F90730002B09
:101A20000BDBFB7903F01F02074997F907305B09CD
:101A3000012000FA02F241F8232000BF0C37BD4616
:101A40005DF8047B704700BF00E100E080B483B024
:101A500000AF03463960FB7197F90730002B0ADBB2
:101A60003B68DAB20C4997F907301201D2B20B4445
:101A700083F800230AE03B68DAB20849FB7903F0F7
:101A80000F03043B1201D2B20B441A7600BF0C378D
:101A9000BD465DF8047B704700E100E000ED00E02A
:101AA00080B489B000AFF860B9607A60FB6803F079
:101AB0000703FB61FB69C3F10703042B28BF042361
:101AC000BB61FB690433062B02D9FB69033B00E0D1
:101AD00000237B614FF0FF32BB6902FA03F3DA4364
:101AE000BB681A407B699A404FF0FF317B6901FA6D
:101AF00003F3D9437B680B40134318462437BD4694
:101B00005DF8047B7047000080B582B000AF78605C
:101B10007B68013BB3F1807F01D301230FE00A4AC8
:101B20007B68013B53600F214FF0FF30FFF78EFFC2
:101B3000054B00229A60044B07221A6000231846C6
:101B40000837BD4680BD00BF10E000E080B582B020
:101B500000AF78607868FFF729FF00BF0837BD46FF
:101B600080BD80B586B000AF0346B9607A60FB7374
:101B700000237B61FFF73EFF78617A68B968786976
:101B8000FFF78EFF024697F90F3011461846FFF710
:101B90005DFF00BF1837BD4680BD80B582B000AF85
:101BA0000346FB7197F907301846FFF731FF00BF76
:101BB0000837BD4680BD80B582B000AF78607868D8
:101BC000FFF7A2FF034618460837BD4680BD000058
:101BD00080B586B000AF786000237B61FFF7DAFE46
:101BE00038617B68002B01D1012399E07B680222D8
:101BF00083F835207B68002283F834207B681B68DB
:101C00001A687B681B6822F001021A600FE0FFF778
:101C1000C1FE02463B69D31A052B08D97B682022F6
:101C20005A657B68032283F83520032378E07B68BC
:101C30001B681B6803F00103002BE8D17B681B685D
:101C40001B687B617A69384B13407B617B685A68FB
:101C50007B689B681A437B68DB681A437B681B6957
:101C60001A437B685B691A437B689B691A437B68EC
:101C7000DB691A437B681B6A13437A6913437B61F0
:101C80007B685B6A042B07D17B68DA6A7B681B6B15
:101C900013437A6913437B617B681B687A691A6016
:101CA0007B681B685B697B617B6923F007037B6151
:101CB0007B685B6A7A6913437B617B685B6A042B90
:101CC00017D17B689B6A7A6913437B617B68DB6A07
:101CD000002B0ED0786800F001FB0346002B08D0E3
:101CE0007B6840225A657B68012283F835200123F6
:101CF00016E07B681B687A695A61786800F0B8FA68
:101D00000346FB607B68DB6D3F229A40FB689A606C
:101D10007B6800225A657B68012283F83520002306
:101D200018461837BD4680BD3F8010F080B586B09C
:101D300000AFF860B9607A603B600023FB75FB6818
:101D40009B6D3B61FB6893F83430012B01D102237A
:101D500040E0FB68012283F83420FB6893F83530BB
:101D6000DBB2012B2FD1FB68022283F83520FB6800
:101D700000225A653B687A68B968F86800F04AFA48
:101D8000FB68DB6D3F229A403B699A60FB681B68E9
:101D90001A68FB681B6842F016021A60FB681B6C2D
:101DA000002B07D0FB681B681A68FB681B6842F0B1
:101DB00008021A60FB681B681A68FB681B6842F01F
:101DC00001021A6005E0FB68002283F83420022338
:101DD000FB75FB7D18461837BD4680BD80B584B0C5
:101DE00000AF78607B689B6DFB60FFF7D3FDB86048
:101DF0007B6893F83530DBB2022B08D07B688022F9
:101E00005A657B68002283F83420012352E07B6806
:101E10001B681A687B681B6822F016021A607B68D0
:101E20001B685A697B681B6822F080025A617B68D4
:101E30001B6C002B03D17B689B6C002B07D07B684D
:101E40001B681A687B681B6822F008021A607B68AE
:101E50001B681A687B681B6822F001021A6013E095
:101E6000FFF798FD0246BB68D31A052B0CD97B6897
:101E700020225A657B68032283F835207B68002284
:101E800083F83420032315E07B681B681B6803F08C
:101E90000103002BE4D17B68DB6D3F229A40FB6895
:101EA0009A607B68012283F835207B68002283F8E2
:101EB0003420002318461037BD4680BD80B483B05F
:101EC00000AF78607B6893F83530DBB2022B04D02A
:101ED0007B6880225A6501230CE07B68052283F829
:101EE00035207B681B681A687B681B6822F001023A
:101EF0001A60002318460C37BD465DF8047B704716
:101F000080B586B000AF78600023BB608E4B1B6845
:101F10008E4AA2FB03239B0A7B617B689B6D3B611E
:101F20003B691B68FB607B68DB6D08229A40FB689D
:101F30001340002B1AD07B681B681B6803F0040356
:101F4000002B13D07B681B681A687B681B6822F023
:101F500004021A607B68DB6D08229A403B699A6034
:101F60007B685B6D43F001027B685A657B68DB6DC3
:101F700001229A40FB681340002B12D07B681B683B
:101F80005B6903F08003002B0BD07B68DB6D0122C3
:101F90009A403B699A607B685B6D43F002027B6804
:101FA0005A657B68DB6D04229A40FB681340002B66
:101FB00012D07B681B681B6803F00203002B0BD058
:101FC0007B68DB6D04229A403B699A607B685B6D9D
:101FD00043F004027B685A657B68DB6D10229A40EF
:101FE000FB681340002B43D07B681B681B6803F021
:101FF0000803002B3CD07B68DB6D10229A403B69C4
:102000009A607B681B681B6803F48023002B18D040
:102010007B681B681B6803F40023002B08D17B68D6
:102020001B6C002B24D07B681B6C786898471FE0E2
:102030007B689B6C002B1BD07B689B6C78689847F7
:1020400016E07B681B681B6803F48073002B07D1C4
:102050007B681B681A687B681B6822F008021A609C
:102060007B681B6C002B03D07B681B6C78689847DF
:102070007B68DB6D20229A40FB681340002B00F048
:102080008F807B681B681B6803F01003002B00F037
:1020900087807B68DB6D20229A403B699A607B6871
:1020A00093F83530DBB2052B36D17B681B681A6894
:1020B0007B681B6822F016021A607B681B685A69ED
:1020C0007B681B6822F080025A617B681B6C002BC6
:1020D00003D17B689B6C002B07D07B681B681A6858
:1020E0007B681B6822F008021A607B68DB6D3F2268
:1020F0009A403B699A607B68012283F835207B68AF
:10210000002283F834207B681B6D002B7ED07B6817
:102110001B6D7868984779E07B681B681B6803F43F
:102120008023002B1DD07B681B681B6803F40023F1
:10213000002B0DD17B685B6C002B31D07B685B6C16
:10214000786898472CE000BF00000020B5814E1B46
:102150007B68DB6B002B23D07B68DB6B7868984750
:102160001EE07B681B681B6803F48073002B0FD193
:102170007B681B681A687B681B6822F010021A6073
:102180007B68012283F835207B68002283F83420A5
:102190007B68DB6B002B03D07B68DB6B7868984730
:1021A0007B685B6D002B32D07B685B6D03F00103B5
:1021B000002B22D07B68052283F835207B681B68C2
:1021C0001A687B681B6822F001021A60BB68013341
:1021D000BB607A699A4207D37B681B681B6803F06F
:1021E0000103002BF2D100E000BF7B68012283F8DD
:1021F00035207B68002283F834207B68DB6C002B61
:1022000005D07B68DB6C7868984700E000BF183722
:10221000BD4680BD80B485B000AFF860B9607A601B
:102220003B60FB681B681A68FB681B6822F480220D
:102230001A60FB681B683A685A60FB689B68402B11
:1022400008D1FB681B687A689A60FB681B68BA68EB
:10225000DA6007E0FB681B68BA689A60FB681B6875
:102260007A68DA6000BF1437BD465DF8047B7047BA
:1022700080B485B000AF78607B681B68DBB2103B30
:10228000144AA2FB03231B09FB60134AFB68134497
:102290001B781A467B68DA65FB68032B09D97B68D3
:1022A0001B6823F47F7323F003031A1D7B689A6570
:1022B00007E07B681B6823F47F7323F003037A68CD
:1022C00093657B689B6D18461437BD465DF8047BAB
:1022D000704700BFABAAAAAA94AD000880B485B02D
:1022E00000AF78600023FB737B689B6ABB607B68F0
:1022F0009B69002B1FD1BB68032B56D801A252F853
:1023000023F000BF15230008272300081523000829
:10231000AB2300087B68DB6A03F08073002B46D098
:102320000123FB7343E07B68DB6AB3F1C07F40D1DC
:102330000123FB733DE07B689B69B3F5005F21D10E
:10234000BB68032B37D801A252F823F05D230008A5
:10235000632300085D230008752300080123FB7335
:1023600030E07B68DB6A03F08073002B25D001230B
:10237000FB7322E07B68DB6AB3F1C07F1FD10123CE
:10238000FB731CE0BB68022B03D9BB68032B03D093
:1023900018E00123FB7315E07B68DB6A03F08073B0
:1023A000002B0ED00123FB730BE000BF0AE000BF3F
:1023B00008E000BF06E000BF04E000BF02E000BF8D
:1023C00000E000BFFB7B18461437BD465DF8047B78
:1023D000704700BF80B489B000AF786039600023D7
:1023E0007B6100233B610023BB610023FB616BE148
:1023F0000122FB6902FA03F37B613B681B687A697F
:1024000013403B613A697B699A4240F05A813B68CC
:102410005B6803F00303012B05D03B685B6803F0A6
:102420000303022B30D17B689B68BB61FB695B00B7
:10243000032202FA03F3DB43BA691340BB613B6832
:10244000DA68FB695B0002FA03F3BA691343BB6104
:102450007B68BA699A607B685B68BB610122FB6933
:1024600002FA03F3DB43BA691340BB613B685B6864
:102470001B0903F00102FB6902FA03F3BA69134373
:10248000BB617B68BA695A603B685B6803F0030311
:10249000032B17D07B68DB68BB61FB695B00032201
:1024A00002FA03F3DB43BA691340BB613B689A68E5
:1024B000FB695B0002FA03F3BA691343BB617B68F3
:1024C000BA69DA603B685B6803F00303022B23D12F
:1024D000FB69DA087B68083253F82230BB61FB697C
:1024E00003F007039B000F2202FA03F3DB43BA69F0
:1024F0001340BB613B681A69FB6903F007039B004B
:1025000002FA03F3BA691343BB61FB69DA087B681B
:102510000832B96943F822107B681B68BB61FB690C
:102520005B00032202FA03F3DB43BA691340BB6189
:102530003B685B6803F00302FB695B0002FA03F38C
:10254000BA691343BB617B68BA691A603B685B6810
:1025500003F44033002B00F0B4800023FB60604B99
:102560005B6C5F4A43F4804353645D4B5B6C03F4E4
:102570008043FB60FB685B4AFB699B08023352F8AF
:102580002330BB61FB6903F003039B000F2202FAB7
:1025900003F3DB43BA691340BB617B68524A934241
:1025A0002BD07B68514A934225D07B68504A934296
:1025B0001FD07B684F4A934219D07B684E4A9342A2
:1025C00013D07B684D4A93420DD07B684C4A9342AE
:1025D00007D07B684B4A934201D107230EE00823C2
:1025E0000CE006230AE0052308E0042306E00323A9
:1025F00004E0022302E0012300E00023FA6902F074
:10260000030292009340BA691343BB613549FB69E9
:102610009B080233BA6941F823203B4B9B68BB619E
:102620003B69DB43BA691340BB613B685B6803F4F9
:102630008013002B03D0BA693B691343BB61324A54
:10264000BB699360304BDB68BB613B69DB43BA69B4
:102650001340BB613B685B6803F40013002B03D09D
:10266000BA693B691343BB61274ABB69D360264BF8
:102670005B68BB613B69DB43BA691340BB613B6884
:102680005B6803F40033002B03D0BA693B69134342
:10269000BB611D4ABB6953601B4B1B68BB613B6937
:1026A000DB43BA691340BB613B685B6803F480336A
:1026B000002B03D0BA693B691343BB61124ABB6963
:1026C0001360FB690133FB61FB690F2B7FF690AE52
:1026D00000BF00BF2437BD465DF8047B704700BFD4
:1026E000003802400038014000000240000402406F
:1026F00000080240000C024000100240001402409A
:1027000000180240001C0240003C014080B586B029
:1027100000AF78607B68002B01D1012367E27B6802
:102720001B6803F00103002B75D0884B9B6803F0F6
:102730000C03042B0CD0854B9B6803F00C03082B77
:1027400012D1824B5B6803F48003B3F5800F0BD189
:102750007E4B1B6803F40033002B5BD07B685B6807
:10276000002B57D1012342E27B685B68B3F5803FC1
:1027700006D1764B1B68754A43F4803313601DE025
:102780007B685B68B3F5A02F0CD1704B1B686F4A58
:1027900043F4802313606D4B1B686C4A43F4803311
:1027A00013600BE0694B1B68684A23F480331360A5
:1027B000664B1B68654A23F4802313607B685B6863
:1027C000002B13D0FFF7E6F8386108E0FFF7E2F8D6
:1027D00002463B69D31A642B01D9032307E25B4B02
:1027E0001B6803F40033002BF0D014E0FFF7D2F89D
:1027F000386108E0FFF7CEF802463B69D31A642B34
:1028000001D90323F3E1514B1B6803F40033002B80
:10281000F0D100E000BF7B681B6803F00203002BCF
:1028200063D04A4B9B6803F00C03002B0BD0474B43
:102830009B6803F00C03082B1CD1444B5B6803F42A
:102840008003002B16D1414B1B6803F00203002BC1
:1028500005D07B68DB68012B01D00123C7E13B4B2E
:102860001B6823F0F8027B681B69DB0037491343C0
:102870000B603AE07B68DB68002B20D0344B0122F0
:102880001A60FFF787F8386108E0FFF783F802461F
:102890003B69D31A022B01D90323A8E12B4B1B68F8
:1028A00003F00203002BF0D0284B1B6823F0F80242
:1028B0007B681B69DB00254913430B6015E0244B43
:1028C00000221A60FFF766F8386108E0FFF762F847
:1028D00002463B69D31A022B01D9032387E11B4B24
:1028E0001B6803F00203002BF0D17B681B6803F028
:1028F0000803002B36D07B685B69002B16D0154B84
:1029000001221A60FFF746F8386108E0FFF742F845
:1029100002463B69D31A022B01D9032367E10B4B13
:102920005B6F03F00203002BF0D01BE0094B002289
:102930001A60FFF72FF838610EE0FFF72BF8024618
:102940003B69D31A022B07D9032350E10038024018
:1029500000004742800E4742884B5B6F03F0020342
:10296000002BEAD17B681B6803F00403002B00F006
:1029700097800023FB75814B1B6C03F08053002B69
:102980000FD10023BB607D4B1B6C7C4A43F080530E
:1029900013647A4B1B6C03F08053BB60BB6801234C
:1029A000FB75774B1B6803F48073002B18D1744BB5
:1029B0001B68734A43F480731360FEF7EBFF3861C2
:1029C00008E0FEF7E7FF02463B69D31A022B01D964
:1029D00003230CE16A4B1B6803F48073002BF0D0D7
:1029E0007B689B68012B06D1644B1B6F634A43F0E5
:1029F000010313671CE07B689B68052B0CD15F4BC0
:102A00001B6F5E4A43F0040313675C4B1B6F5B4A0A
:102A100043F0010313670BE0584B1B6F574A23F039
:102A200001031367554B1B6F544A23F004031367CC
:102A30007B689B68002B15D0FEF7ACFF38610AE07D
:102A4000FEF7A8FF02463B69D31A41F2883293424F
:102A500001D90323CBE0494B1B6F03F00203002B8A
:102A6000EED014E0FEF796FF38610AE0FEF792FF21
:102A700002463B69D31A41F28832934201D90323BB
:102A8000B5E03E4B1B6F03F00203002BEED1FB7D44
:102A9000012B05D1394B1B6C384A23F0805313644A
:102AA0007B689B69002B00F0A180344B9B6803F08E
:102AB0000C03082B5CD07B689B69022B41D1314B06
:102AC00000221A60FEF766FF386108E0FEF762FF39
:102AD00002463B69D31A022B01D9032387E0274B17
:102AE0001B6803F00073002BF0D17B68DA697B6808
:102AF0001B6A1A437B685B6A9B011A437B689B6A6B
:102B00005B08013B1B041A437B68DB6A1B061B49FD
:102B100013434B601B4B01221A60FEF73BFF3861E9
:102B200008E0FEF737FF02463B69D31A022B01D9B2
:102B300003235CE0114B1B6803F00073002BF0D003
:102B400054E0104B00221A60FEF724FF386108E0C1
:102B5000FEF720FF02463B69D31A022B01D903235B
:102B600045E0064B1B6803F00073002BF0D13DE0FD
:102B70007B689B69012B07D1012338E000380240B4
:102B800000700040600047421B4B5B68FB607B6845
:102B90009B69012B28D0FB6803F480027B68DB690A
:102BA0009A4221D1FB6803F03F027B681B6A9A427C
:102BB0001AD1FA6847F6C07313407A68526A9201D4
:102BC000934211D1FB6803F440327B689B6A5B0837
:102BD000013B1B049A4207D1FB6803F070627B68DB
:102BE000DB6A1B069A4201D0012300E0002318464D
:102BF0001837BD4680BD00BF0038024080B584B0A4
:102C000000AF786039607B68002B01D10123CCE0F4
:102C1000684B1B6803F007033A689A420CD9654B6E
:102C20003A68D2B21A70634B1B6803F007033A6824
:102C30009A4201D00123B8E07B681B6803F00203CD
:102C4000002B20D07B681B6803F00403002B05D009
:102C5000594B9B68584A43F4E05393607B681B6868
:102C600003F00803002B05D0534B9B68524A43F4F2
:102C700060439360504B9B6823F0F0027B689B6835
:102C80004D4913438B607B681B6803F00103002BE5
:102C900044D07B685B68012B07D1474B1B6803F46A
:102CA0000033002B19D101237FE07B685B68022B86
:102CB00003D07B685B68032B07D13F4B1B6803F095
:102CC0000073002B09D101236FE03B4B1B6803F01D
:102CD0000203002B01D1012367E0374B9B6823F0EF
:102CE00003027B685B68344913438B60FEF752FE36
:102CF000F8600AE0FEF74EFE0246FB68D31A41F286
:102D00008832934201D903234FE02B4B9B6803F099
:102D10000C027B685B689B009A42EBD1254B1B68D9
:102D200003F007033A689A420CD2224B3A68D2B2B7
:102D30001A70204B1B6803F007033A689A4201D0CF
:102D4000012332E07B681B6803F00403002B08D0EA
:102D5000194B9B6823F4E0527B68DB6816491343E8
:102D60008B607B681B6803F00803002B09D0124BB3
:102D70009B6823F460427B681B69DB000E491343A8
:102D80008B6000F021F802460B4B9B681B0903F097
:102D90000F030A49CB5C22FA03F3094A1360094B7B
:102DA0001B681846FEF7B2FD002318461037BD46D3
:102DB00080BD00BF003C0240003802407CAD0008EE
:102DC00000000020040000202DE9B04F94B000AFB7
:102DD00000237B640023FB6400233B640023BB646B
:102DE000794B9B6803F00C03082B0DD0082B00F2E5
:102DF000E180002B02D0042B03D0DBE0734BBB64DB
:102E0000DBE0734BBB64D8E06F4B5B6803F03F03C0
:102E10007B646D4B5B6803F48003002B63D06A4BCB
:102E20005B689B090022BB63FA63BB6BC3F30803B7
:102E30003B6300237B63D7E90C4522462B464FF0CA
:102E400000004FF00001590141EAD26150010246F1
:102E50000B462146511A3961294663EB01037B6118
:102E60004FF000024FF00003D7E904AB59468B0145
:102E7000514643EA916351468A015146B2EB01083B
:102E8000594663EB01094FF000024FF000034FEA8F
:102E9000C90343EA58734FEAC8029046994623464D
:102EA00018EB0303BB602B4649EB0303FB604FF0B9
:102EB00000024FF00003D7E9024529464B022146A4
:102EC00043EAD15321464A02104619467B6C002240
:102ED000BB62FA62D7E90A23FDF7E6FE02460B461B
:102EE0001346FB6458E0384B5B689B090022184688
:102EF0001146C0F308033B6200237B62D7E90889CF
:102F000042464B464FF000004FF00001590141EAA4
:102F1000D261500102460B464146B2EB010A4946D6
:102F200063EB010B4FF000024FF000034FEA8B13ED
:102F300043EA9A634FEA8A12B2EB0A0463EB0B0589
:102F40004FF000024FF00003EB0043EA5473E2003D
:102F500014461D464346E3183B604B4645EB0303CE
:102F60007B604FF000024FF00003D7E9004529468F
:102F70008B02214643EA915321468A0210461946A4
:102F80007B6C0022BB61FA61D7E90623FDF78CFE5A
:102F900002460B461346FB640B4B5B681B0C03F0AD
:102FA000030301335B003B64FA6C3B6CB2FBF3F34D
:102FB000BB6402E0054BBB6400BFBB6C18465037D6
:102FC000BD46BDE8B08F00BF003802400024F400C9
:102FD00000127A0080B400AF034B1B681846BD4650
:102FE0005DF8047B704700BF0000002080B500AF93
:102FF000FFF7F0FF0246054B9B689B0A03F00703AF
:103000000349CB5C22FA03F3184680BD0038024026
:103010008CAD000880B500AFFFF7DCFF0246054B22
:103020009B685B0B03F007030349CB5C22FA03F3B5
:10303000184680BD003802408CAD000880B582B0D3
:1030400000AF78607B68002B01D1012341E07B68F1
:1030500093F83D30DBB2002B06D17B68002283F869
:103060003C207868FEF7E0FA7B68022283F83D2076
:103070007B681A687B6804331946104600F0B6F97D
:103080007B68012283F846207B68012283F83E207A
:103090007B68012283F83F207B68012283F840206F
:1030A0007B68012283F841207B68012283F842205B
:1030B0007B68012283F843207B68012283F8442047
:1030C0007B68012283F845207B68012283F83D203C
:1030D000002318460837BD4680BD000080B485B087
:1030E00000AF78607B6893F83D30DBB2012B01D0F4
:1030F00001234EE07B68022283F83D207B681B6839
:10310000DA687B681B6842F00102DA607B681B6842
:10311000234A934222D07B681B68B3F1804F1DD0B5
:103120007B681B681F4A934218D07B681B681E4A45
:10313000934213D07B681B681C4A93420ED07B6875
:103140001B681B4A934209D07B681B68194A93424B
:1031500004D07B681B68184A934211D17B681B68B6
:103160009B6803F00703FB60FB68062B10D07B68AD
:103170001B681A687B681B6842F001021A6007E04E
:103180007B681B681A687B681B6842F001021A6042
:10319000002318461437BD465DF8047B704700BF16
:1031A000000001400004004000080040000C004006
:1031B00000040140004001400018004080B584B088
:1031C00000AF78607B681B68DB68FB607B681B680E
:1031D0001B69BB60BB6803F00203002B20D0FB68B7
:1031E00003F00203002B1BD07B681B686FF0020208
:1031F0001A617B6801221A777B681B689B6903F060
:103200000303002B03D0786800F0D2F805E078685B
:1032100000F0C4F8786800F0D5F87B6800221A77CF
:10322000BB6803F00403002B20D0FB6803F0040309
:10323000002B1BD07B681B686FF004021A617B684F
:1032400002221A777B681B689B6903F44073002B8A
:1032500003D0786800F0ACF805E0786800F09EF8DC
:10326000786800F0AFF87B6800221A77BB6803F03B
:103270000803002B20D0FB6803F00803002B1BD0B1
:103280007B681B686FF008021A617B6804221A775A
:103290007B681B68DB6903F00303002B03D07868AD
:1032A00000F086F805E0786800F078F8786800F0BB
:1032B00089F87B6800221A77BB6803F01003002BA3
:1032C00020D0FB6803F01003002B1BD07B681B6829
:1032D0006FF010021A617B6808221A777B681B68FE
:1032E000DB6903F44073002B03D0786800F060F8CA
:1032F00005E0786800F052F8786800F063F87B68C1
:1033000000221A77BB6803F00103002B0CD0FB6886
:1033100003F00103002B07D07B681B686FF00102EC
:103320001A617868FEF71AF8BB6803F08003002B77
:103330000CD0FB6803F08003002B07D07B681B6870
:103340006FF080021A61786800F082F9BB6803F0C0
:103350004003002B0CD0FB6803F04003002B07D088
:103360007B681B686FF040021A61786800F034F8DF
:10337000BB6803F02003002B0CD0FB6803F0200394
:10338000002B07D07B681B686FF020021A617868F9
:1033900000F054F900BF1037BD4680BD80B483B043
:1033A00000AF786000BF0C37BD465DF8047B704706
:1033B00080B483B000AF786000BF0C37BD465DF8C5
:1033C000047B704780B483B000AF786000BF0C37D7
:1033D000BD465DF8047B704780B483B000AF786071
:1033E00000BF0C37BD465DF8047B704780B485B0E4
:1033F00000AF786039607B681B68FB607B68464A79
:10340000934213D07B68B3F1804F0FD07B68434A5F
:1034100093420BD07B68424A934207D07B68414A73
:10342000934203D07B68404A934208D1FB6823F063
:103430007003FB603B685B68FA681343FB607B6862
:10344000354A93422BD07B68B3F1804F27D07B68FD
:10345000324A934223D07B68314A93421FD07B6823
:10346000304A93421BD07B682F4A934217D07B6827
:103470002E4A934213D07B682D4A93420FD07B682B
:103480002C4A93420BD07B682B4A934207D07B682F
:103490002A4A934203D07B68294A934208D1FB68A9
:1034A00023F44073FB603B68DB68FA681343FB60FE
:1034B000FB6823F080023B685B691343FB607B6819
:1034C000FA681A603B689A687B68DA623B681A6837
:1034D0007B689A627B68104A934203D07B68124AE9
:1034E000934203D13B681A697B681A637B680122A7
:1034F0005A617B681B6903F00103012B05D17B68CE
:103500001B6923F001027B681A6100BF1437BD46B6
:103510005DF8047B704700BF0000014000040040DC
:1035200000080040000C0040000401400040014041
:10353000004401400048014000180040001C0040C9
:103540000020004080B485B000AF786039607B68AF
:1035500093F83C30012B01D102235AE07B68012211
:1035600083F83C207B68022283F83D207B681B683F
:103570005B68FB607B681B689B68BB60FB6823F033
:103580007003FB603B681B68FA681343FB607B6851
:103590001B68FA685A607B681B68214A934222D0F4
:1035A0007B681B68B3F1804F1DD07B681B681D4A88
:1035B000934218D07B681B681B4A934213D07B68E8
:1035C0001B681A4A93420ED07B681B68184A9342C4
:1035D00009D07B681B68174A934204D07B681B683C
:1035E000154A93420CD1BB6823F08003BB603B6853
:1035F0005B68BA681343BB607B681B68BA689A60F3
:103600007B68012283F83D207B68002283F83C2000
:10361000002318461437BD465DF8047B704700BF91
:10362000000001400004004000080040000C004081
:1036300000040140004001400018004080B483B005
:1036400000AF786000BF0C37BD465DF8047B704763
:1036500080B483B000AF786000BF0C37BD465DF822
:10366000047B704780B582B000AF78607B68002B28
:1036700001D1012342E07B6893F84130DBB2002B9B
:1036800006D17B68002283F840207868FEF73CF87A
:103690007B68242283F841207B681B68DA687B689A
:1036A0001B6822F40052DA60786801F0A3F87B68A6
:1036B0001B681A697B681B6822F490421A617B6858
:1036C0001B685A697B681B6822F02A025A617B6872
:1036D0001B68DA687B681B6842F40052DA607B681A
:1036E00000225A647B68202283F841207B682022D4
:1036F00083F842207B6800225A630023184608376B
:10370000BD4680BD80B58AB002AFF860B9603B604D
:103710001346FB8000237B61FB6893F84130DBB2EA
:10372000202B75D1BB68002B02D0FB88002B01D168
:1037300001236EE0FB6800225A64FB68212283F8B3
:103740004120FEF727F97861FB68FA889A84FB68C4
:10375000FA88DA84FB689B68B3F5805F08D1FB6860
:103760001B69002B04D10023FB61BB68BB6103E034
:10377000BB68FB610023BB612EE03B6800937B6963
:1037800000228021F86800F07CFD0346002B05D064
:10379000FB68202283F8412003233AE0FB69002BD9
:1037A0000BD1BB691B881A46FB681B68C2F3080271
:1037B0005A60BB690233BB6107E0FB691A78FB689A
:1037C0001B685A60FB690133FB61FB68DB8C9BB2B1
:1037D000013B9AB2FB68DA84FB68DB8C9BB2002B5E
:1037E000CBD13B6800937B6900224021F86800F050
:1037F00048FD0346002B05D0FB68202283F84120BA
:10380000032306E0FB68202283F84120002300E028
:10381000022318462037BD4680BD000080B58CB01D
:1038200000AFF860B9601346FB80FB6893F8413045
:10383000DBB2202B56D1BB68002B02D0FB88002BBB
:1038400001D101234FE0BA68FB681A62FB68FA886D
:103850009A84FB68FA88DA84FB6800225A64FB6861
:10386000212283F84120FB689B6B214ADA63FB68C5
:103870009B6B204A1A64FB689B6B1F4ADA64FB68E7
:103880009B6B00221A6507F10803FB62FB68986BCB
:10389000FB6A1968FB681B6804331A46FB88FEF74D
:1038A00045FAFB681B686FF040021A60FB681B68F2
:1038B0001433BB61BB6953E8003F7B617B6943F014
:1038C0008003BB62FB681B681433BA6A7A623B628E
:1038D000396A7A6A41E80023FB61FB69002BE5D174
:1038E000002300E0022318463037BD4680BD00BFEC
:1038F000D13F00086B400008EF41000880B584B05C
:1039000000AFF860B9601346FB80FB6893F8423063
:10391000DBB2202B12D1BB68002B02D0FB88002B1E
:1039200001D101230BE0FB6800221A63FB881A46D1
:10393000B968F86800F0FEFC034600E00223184670
:103940001037BD4680BD80B590B000AF78600023D1
:10395000FB637B681B685B6903F08003802B0CBFF3
:1039600001230023DBB2FB637B6893F84130DBB2B9
:10397000212B28D1FB6B002B25D07B681B681433CF
:103980007B627B6A53E8003F3B623B6A23F0800323
:10399000BB637B681B681433BA6B3A63FB62F96ADA
:1039A0003A6B41E80023BB62BB6A002BE5D17B6820
:1039B0009B6B002B04D07B689B6B1846FEF70EFABE
:1039C000786800F051FD7B681B685B6903F0400379
:1039D000402B0CBF01230023DBB2FB637B6893F811
:1039E0004230DBB2222B28D1FB6B002B25D07B6829
:1039F0001B6814333B613B6953E8003FFB60FB6885
:103A000023F040037B637B681B6814337A6BFA6195
:103A1000BB61B969FA6941E800237B617B69002BCE
:103A2000E5D17B68DB6B002B04D07B68DB6B184631
:103A3000FEF7D4F9786800F03FFD002318464037C0
:103A4000BD4680BD80B5BAB000AF78607B681B68AA
:103A50001B68C7F8E4307B681B68DB68C7F8E03098
:103A60007B681B685B69C7F8DC300023C7F8D83077
:103A70000023C7F8D430D7F8E43003F00F03C7F8B9
:103A8000D830D7F8D830002B0FD1D7F8E43003F076
:103A90002003002B09D0D7F8E03003F02003002BDF
:103AA00003D0786800F0E7FD5BE2D7F8D830002B50
:103AB00000F0DE80D7F8DC3003F00103002B06D1E4
:103AC000D7F8E03003F49073002B00F0D180D7F8E2
:103AD000E43003F00103002B0BD0D7F8E03003F4FF
:103AE0008073002B05D07B685B6C43F001027B6820
:103AF0005A64D7F8E43003F00403002B0BD0D7F856
:103B0000DC3003F00103002B05D07B685B6C43F0D5
:103B100002027B685A64D7F8E43003F00203002BFA
:103B20000BD0D7F8DC3003F00103002B05D07B6805
:103B30005B6C43F004027B685A64D7F8E43003F00E
:103B40000803002B11D0D7F8E03003F02003002B3E
:103B500005D1D7F8DC3003F00103002B05D07B68DA
:103B60005B6C43F008027B685A647B685B6C002BDB
:103B700000F0F281D7F8E43003F02003002B08D0E6
:103B8000D7F8E03003F02003002B02D0786800F073
:103B900072FD7B681B685B6903F04003402B0CBF20
:103BA00001230023DBB2C7F8D4307B685B6C03F0E1
:103BB0000803002B03D1D7F8D430002B4FD07868FE
:103BC00000F07AFC7B681B685B6903F04003402BC4
:103BD00041D17B681B681433C7F89C30D7F89C3000
:103BE00053E8003FC7F89830D7F8983023F04003E7
:103BF000C7F8D0307B681B681433D7F8D020C7F8DB
:103C0000A820C7F8A430D7F8A410D7F8A82041E816
:103C10000023C7F8A030D7F8A030002BD9D17B689B
:103C2000DB6B002B13D07B68DB6B7E4A1A657B68ED
:103C3000DB6B1846FEF742F90346002B16D07B6873
:103C4000DB6B1B6D7A68D26B104698470EE0786884
:103C500000F0A8F90AE0786800F0A4F906E07868B6
:103C600000F0A0F97B6800225A6475E100BF73E19F
:103C70007B681B6B012B40F04F81D7F8E43003F0D9
:103C80001003002B00F04881D7F8E03003F0100358
:103C9000002B00F041810023BB607B681B681B6820
:103CA000BB607B681B685B68BB60BB687B681B682C
:103CB0005B6903F04003402B40F0B6807B68DB6B10
:103CC0001B685B68A7F8BE30B7F8BE30002B00F069
:103CD00045817B689B8DB7F8BE209A4280F03E817B
:103CE0007B68B7F8BE20DA857B68DB6BDB69B3F5F0
:103CF000807F00F088807B681B680C33C7F88830B1
:103D0000D7F8883053E8003FC7F88430D7F88430BC
:103D100023F48073C7F8B8307B681B680C33D7F87E
:103D2000B820C7F89420C7F89030D7F89010D7F88B
:103D3000942041E80023C7F88C30D7F88C30002B52
:103D4000D9D17B681B6814337B677B6F53E8003FD6
:103D50003B673B6F23F00103C7F8B4307B681B68F7
:103D60001433D7F8B420C7F88020FB67F96FD7F871
:103D7000802041E80023BB67BB6F002BE1D17B684B
:103D80001B6814333B663B6E53E8003FFB65FB6DDD
:103D900023F04003C7F8B0307B681B681433D7F8B2
:103DA000B020FA66BB66B96EFA6E41E800237B6606
:103DB0007B6E002BE3D17B68202283F842207B6856
:103DC00000221A637B681B680C33FB64FB6C53E8AE
:103DD000003FBB64BB6C23F01003C7F8AC307B68BA
:103DE0001B680C33D7F8AC20BA657B65796DBA6D6A
:103DF00041E800233B653B6D002BE3D17B68DB6B27
:103E00001846FDF7EBFF7B6802225A637B689A8DA8
:103E10007B68DB8D9BB2D31A9BB21946786800F0A1
:103E2000CBF89BE07F4500087B689A8D7B68DB8D33
:103E30009BB2D31AA7F8CE307B68DB8D9BB2002BE8
:103E400000F08E80B7F8CE30002B00F089807B68C0
:103E50001B680C33BB63BB6B53E8003F7B637B6B1E
:103E600023F49073C7F8C8307B681B680C33D7F80D
:103E7000C8207A643B64396C7A6C41E80023FB63A8
:103E8000FB6B002BE3D17B681B6814337B627B6A7E
:103E900053E8003F3B623B6A23F00103C7F8C4309C
:103EA0007B681B681433D7F8C4203A63FB62F96A55
:103EB0003A6B41E80023BB62BB6A002BE3D17B680D
:103EC000202283F842207B6800221A637B681B68EB
:103ED0000C333B613B6953E8003FFB60FB6823F018
:103EE0001003C7F8C0307B681B680C33D7F8C020BC
:103EF000FA61BB61B969FA6941E800237B617B69BA
:103F0000002BE3D17B6802225A63B7F8CE30194602
:103F1000786800F051F823E0D7F8E43003F080032C
:103F2000002B09D0D7F8E03003F08003002B03D03A
:103F3000786800F038FB14E0D7F8E43003F0400371
:103F4000002B0ED0D7F8E03003F04003002B08D050
:103F5000786800F078FB04E000BF02E000BF00E0FA
:103F600000BFE837BD4680BD80B483B000AF786045
:103F700000BF0C37BD465DF8047B704780B483B04A
:103F800000AF786000BF0C37BD465DF8047B70471A
:103F900080B483B000AF786000BF0C37BD465DF8D9
:103FA000047B704780B483B000AF786000BF0C37EB
:103FB000BD465DF8047B704780B483B000AF786085
:103FC0000B467B8000BF0C37BD465DF8047B704715
:103FD00080B590B000AF78607B689B6BFB637B68BB
:103FE0001B681B6803F48073002B37D1FB6B002226
:103FF000DA84FB6B1B6814337B627B6A53E8003FF7
:104000003B623B6A23F08003BB63FB6B1B6814338A
:10401000BA6B3A63FB62F96A3A6B41E80023BB6210
:10402000BB6A002BE5D1FB6B1B680C333B613B6922
:1040300053E8003FFB60FB6843F040037B63FB6B8E
:104040001B680C337A6BFA61BB61B969FA6941E8A4
:1040500000237B617B69002BE5D102E0F86BFDF763
:104060008FF900BF4037BD4680BD80B584B000AF3A
:1040700078607B689B6BFB60F868FFF775FF00BF9B
:104080001037BD4680BD80B59CB000AF78607B68BE
:104090009B6BFB667B681B681B6803F48073002BBB
:1040A00072D1FB6E0022DA85FB6E1B680C33FB6459
:1040B000FB6C53E8003FBB64BB6C23F48073BB66AE
:1040C000FB6E1B680C33BA6EBA657B65796DBA6D91
:1040D00041E800233B653B6D002BE5D1FB6E1B687F
:1040E0001433BB63BB6B53E8003F7B637B6B23F0F4
:1040F00001037B66FB6E1B6814337A6E7A643B6443
:10410000396C7A6C41E80023FB63FB6B002BE5D133
:10411000FB6E1B6814337B627B6A53E8003F3B6293
:104120003B6A23F040033B66FB6E1B6814333A6E18
:104130003A63FB62F96A3A6B41E80023BB62BB6AEF
:10414000002BE5D1FB6E202283F84220FB6E1B6B17
:10415000012B19D1FB6E1B680C333B613B6953E8A3
:10416000003FFB60FB6823F01003FB65FB6E1B68E0
:104170000C33FA6DFA61BB61B969FA6941E8002351
:104180007B617B69002BE5D1FB6E00225A63FB6EDD
:104190001B6B012B06D1FB6E9B8D1946F86EFFF74A
:1041A0000BFF02E0F86EFFF7E9FE00BF7037BD4677
:1041B00080BD80B584B000AF78607B689B6BFB608E
:1041C000FB6801225A63FB681B6B012B08D1FB685B
:1041D0009B8D5B089BB21946F868FFF7EDFE02E085
:1041E000F868FFF7D5FE00BF1037BD4680BD80B52B
:1041F00084B000AF78600023FB607B689B6BBB6082
:10420000BB681B685B6903F08003802B0CBF012334
:104210000023DBB2FB60BB6893F84130DBB2212B9B
:1042200008D1FB68002B05D0BB680022DA84B8688F
:1042300000F01AF9BB681B685B6903F04003402B70
:104240000CBF01230023DBB2FB60BB6893F8423054
:10425000DBB2222B08D1FB68002B05D0BB68002203
:10426000DA85B86800F028F9BB685B6C43F010028F
:10427000BB685A64B868FFF795FE00BF1037BD46AB
:1042800080BD80B586B000AFF860B9603B60134672
:10429000FB713BE03B6AB3F1FF3F37D0FDF77AFBA0
:1042A00002463B68D31A3A6A9A4202D33B6A002B11
:1042B00001D103233AE0FB681B68DB6803F00403C9
:1042C000002B23D0BB68802B20D0BB68402B1DD097
:1042D000FB681B681B6803F00803082B16D100233A
:1042E0007B61FB681B681B687B61FB681B685B6804
:1042F0007B617B69F86800F0DFF8FB6808225A648C
:10430000FB68002283F8402001230FE0FB681B6854
:104310001A68BB681340BA689A420CBF0123002395
:10432000DBB21A46FB799A42B4D0002318461837FC
:10433000BD4680BD80B598B000AFF860B960134647
:10434000FB80BA68FB689A62FB68FA889A85FB680A
:1043500000225A64FB68222283F84220FB68DB6B50
:104360003E4ADA63FB68DB6B3D4A1A64FB68DB6B31
:104370003C4ADA64FB68DB6B00221A6507F108032C
:10438000FB65FB68D86BFB681B6804331946FB6D43
:104390001A68FB88FDF7CAFC00233B61FB681B68B9
:1043A0001B683B61FB681B685B683B613B69FB68A2
:1043B0001B69002B19D0FB681B680C333B643B6CFA
:1043C00053E8003FFB63FB6B43F48073BB65FB6802
:1043D0001B680C33BA6DFA64BB64B96CFA6C41E8C3
:1043E00000237B647B6C002BE5D1FB681B681433D6
:1043F000FB62FB6A53E8003FBB62BB6A43F0010308
:104400007B65FB681B6814337A6DBA637B63796BD9
:10441000BA6B41E800233B633B6B002BE5D1FB68A3
:104420001B681433BB61BB6953E8003F7B617B6948
:1044300043F040033B65FB681B6814333A6D7A62B6
:104440003B62396A7A6A41E80023FB61FB69002B11
:10445000E5D1002318466037BD4680BD874000087F
:10446000B3410008EF41000880B489B000AF786024
:104470007B681B680C33FB60FB6853E8003FBB6044
:10448000BB6823F0C003FB617B681B680C33FA69CF
:10449000BA617B617969BA6941E800233B613B6994
:1044A000002BE5D17B68202283F8412000BF243710
:1044B000BD465DF8047B704780B495B000AF78606E
:1044C0007B681B680C337B637B6B53E8003F3B636B
:1044D0003B6B23F49073FB647B681B680C33FA6CB2
:1044E0003A64FB63F96B3A6C41E80023BB63BB6B36
:1044F000002BE5D17B681B6814333B623B6A53E8B1
:10450000003FFB61FB6923F00103BB647B681B6810
:104510001433BA6CFA62BB62B96AFA6A41E80023E2
:104520007B627B6A002BE5D17B681B6B012B19D169
:104530007B681B680C33FB60FB6853E8003FBB6083
:10454000BB6823F010037B647B681B680C337A6CB8
:10455000BA617B617969BA6941E800233B613B69D3
:10456000002BE5D17B68202283F842207B68002263
:104570001A6300BF5437BD465DF8047B704780B5B1
:1045800084B000AF78607B689B6BFB60FB680022A7
:10459000DA85FB680022DA84F868FFF703FD00BFC4
:1045A0001037BD4680BD80B485B000AF78607B68B1
:1045B00093F84130DBB2212B3ED17B689B68B3F589
:1045C000805F14D17B681B69002B10D17B681B6A4C
:1045D000FB60FB681B881A467B681B68C2F30802F5
:1045E0005A607B681B6A9A1C7B681A6208E07B68C9
:1045F0001B6A591C7A6811621A787B681B685A60BA
:104600007B68DB8C9BB2013B9BB27A681946D184F4
:10461000002B0FD17B681B68DA687B681B6822F06F
:104620008002DA607B681B68DA687B681B6842F08E
:104630004002DA60002300E0022318461437BD462A
:104640005DF8047B704780B582B000AF78607B680E
:104650001B68DA687B681B6822F04002DA607B68BE
:10466000202283F841207868FCF78AFE0023184650
:104670000837BD4680BD80B58CB000AF78607B68E0
:1046800093F84230DBB2222B40F0AE807B689B680F
:10469000B3F5805F17D17B681B69002B13D1002312
:1046A000FB627B689B6ABB627B681B685B689BB232
:1046B000C3F308039AB2BB6A1A807B689B6A9A1C90
:1046C0007B689A6226E07B689B6AFB620023BB6280
:1046D0007B689B68B3F5805F07D07B689B68002B85
:1046E0000AD17B681B69002B06D17B681B685B685D
:1046F000DAB2FB6A1A7008E07B681B685B68DBB2A1
:1047000003F07F03DAB2FB6A1A707B689B6A5A1C5B
:104710007B689A627B68DB8D9BB2013B9BB27A68B7
:104720001946D185002B5DD17B681B68DA687B68F0
:104730001B6822F02002DA607B681B68DA687B68FD
:104740001B6822F48072DA607B681B685A697B6898
:104750001B6822F001025A617B68202283F8422004
:104760007B6800225A637B681B6B012B35D17B6809
:1047700000221A637B681B680C337B617B6953E8FA
:10478000003F3B613B6923F010037B627B681B6841
:104790000C337A6A3A62FB61F9693A6A41E80023AC
:1047A000BB61BB69002BE5D17B681B681B6803F00C
:1047B0001003102B0AD10023FB607B681B681B6869
:1047C000FB607B681B685B68FB60FB687B689B8D9C
:1047D00019467868FFF7F0FB02E07868FFF7CEFB38
:1047E000002302E0002300E0022318463037BD46D4
:1047F00080BD00002DE9B04FC0B000AFC7F8F40095
:10480000D7F8F4301B681B6923F44050D7F8F43014
:10481000D968D7F8F4301A6840EA01031361D7F871
:10482000F4309A68D7F8F4301B691A43D7F8F4309B
:104830005B691A43D7F8F430DB691343C7F8F830E3
:10484000D7F8F4301B68DB6823F4164121F00C0123
:10485000D7F8F4301A68D7F8F8300B43D360D7F89C
:10486000F4301B685B6923F44070D7F8F430996921
:10487000D7F8F4301A6840EA01035361D7F8F430EE
:104880001A688F4B9A4205D0D7F8F4301A688D4BCE
:104890009A4204D1FEF7BEFBC7F8FC0003E0FEF726
:1048A000A5FBC7F8FC00D7F8F430DB69B3F5004F7F
:1048B00040F00C81D7F8FC300022C7F8E830C7F888
:1048C000EC20D7E93A4522462B469118B9655B4161
:1048D000FB65D7E91623214612EB0108294643EB75
:1048E00001094FF000024FF000034FEAC90343EA09
:1048F00058734FEAC80290469946234618EB0303C3
:10490000C7F8E0302B4649EB0303C7F8E430D7F88B
:10491000F4305B680022C7F8D830C7F8DC20D7E94C
:1049200036120B46DB183B65134642EB03037B65EF
:10493000D7E91423D7E93801FCF7B6F902460B464C
:10494000614BA3FB02235B091C01D7F8FC3000225A
:10495000C7F8D030C7F8D420D7E9348942464B464F
:104960009118B9645B41FB64D7E91223414612EB0D
:10497000010A494643EB010B4FF000024FF00003E0
:104980004FEACB0343EA5A734FEACA0292469B4668
:1049900043461AEB0303C7F8C8304B464BEB0303FF
:1049A000C7F8CC30D7F8F4305B680022C7F8C030C5
:1049B000C7F8C420D7E930120B46DB183B64134616
:1049C00042EB03037B64D7E91023D7E93201FCF7FC
:1049D0006BF902460B4611463B4BA3FB01235B09D7
:1049E000642202FB03F3CB1ADB0003F13202364BE5
:1049F000A3FB02235B095B0003F4F8731C44D7F8A4
:104A0000FC300022C7F8B830C7F8BC20D7E92E899F
:104A100042464B469118B9635B41FB63D7E90E23CD
:104A200041465118396349464B417B634FF00002C0
:104A30004FF00003D7E90CAB5946CB00514643EA8F
:104A400051735146CA0010461946034642469B1808
:104A5000C7F8B0304B460A4642EB0303C7F8B43000
:104A6000D7F8F4305B680022C7F8A830C7F8AC204C
:104A7000D7E92A120B46DB18BB62134642EB03034D
:104A8000FB62D7E90A23D7E92C01FCF70DF90246AE
:104A90000B460D4BA3FB02135B09642101FB03F3DF
:104AA000D31ADB003233084AA2FB03235B0903F06D
:104AB0000702D7F8F4301B6822449A6006E100BF71
:104AC00000100140001401401F85EB51D7F8FC3065
:104AD0000022C7F8A030C7F8A420D7E928894246A9
:104AE0004B46911839625B417B62D7E90823414606
:104AF0005418494643EB01054FF000024FF0000304
:104B0000EB0043EA5473E20014461D464346E318A3
:104B1000C7F898304B4645EB0303C7F89C30D7F8ED
:104B2000F4305B680022C7F89030C7F894204FF04B
:104B300000024FF00003D7E9244529468B002146A7
:104B400043EA917321468A00D7E92601FCF7ACF8C5
:104B500002460B46604BA3FB02235B091C01D7F8FE
:104B6000FC300022C7F88830C7F88C20D7E92289AA
:104B700042464B469118B9615B41FB61D7E9062378
:104B800041465118396149464B417B614FF0000263
:104B90004FF00003D7E904AB5946CB00514643EA36
:104BA00051735146CA0010461946034642469B18A7
:104BB000C7F880304B460A4642EB0303C7F88430FF
:104BC000D7F8F4305B680022BB67FA674FF0000249
:104BD0004FF00003D7E91E8949468B00414643EA5E
:104BE000917341468A00D7E92001FCF75DF802463F
:104BF0000B461146384BA3FB01235B09642202FBE1
:104C000003F3CB1A1B013233334AA2FB03235B09A4
:104C100003F0F0031C44D7F8FC3000223B677A67AE
:104C2000D7E91C8942464B469118B9605B41FB604D
:104C3000D7E9022341465118396049464B417B6010
:104C40004FF000024FF00003D7E900AB5946CB000C
:104C5000514643EA51735146CA001046194603466D
:104C600042469B18BB664B460A4642EB0303FB6673
:104C7000D7F8F4305B6800223B667A664FF000029A
:104C80004FF00003D7E9188949468B00414643EAB3
:104C9000917341468A00D7E91A01FCF705F80246EC
:104CA0000B460D4BA3FB02135B09642101FB03F3CD
:104CB000D31A1B013233084AA2FB03235B0903F01A
:104CC0000F02D7F8F4301B6822449A6000BF07F542
:104CD0008077BD46BDE8B08F1F85EB5180B582B0AF
:104CE00000AF786039607968034802F07BFF0023E9
:104CF00018460837BD4680BD20AA000880B483B09E
:104D000000AF78607B681B68642BCCBF0123002355
:104D1000DBB218460C37BD465DF8047B70470000D7
:104D200080B584B002AF78607B681B680093054B48
:104D300022220549012000F027FB00BF0837BD46AD
:104D400080BD00BF40AA000854AA000880B584B006
:104D500002AF78607B681B680093054B23220549EE
:104D6000002000F011FB00BF0837BD4680BD00BF2A
:104D700070AA000854AA000880B582B000AF78601D
:104D80000B467B80786800F0DFFE034800F05AFC99
:104D900000BF0837BD4680BDB402002080B584B096
:104DA00004AF1D48FEF79AF91C48FEF797F91C4915
:104DB0001C4800F0D9FB1B4800F0C2FA1A4B3A22FB
:104DC0001A49002000F0E0FA64230093184B3B22BC
:104DD0001649012000F0D8FA4FF4FA630093154BFE
:104DE0003C221249022000F0CFFA134A4FF4FD6131
:104DF000124800F085FB03230293114B0193114BE2
:104E00000093114B114A0021114800F097F800233C
:104E10001846BD4680BD00BF240200206C02002061
:104E2000794D0008B402002084AA000854AA0008A2
:104E300094AA0008A8AA0008C0AA0008C8AA0008E6
:104E4000C40300204D4D0008214D0008FD4C000812
:104E5000DCAA000880B582B002AF002213491448D2
:104E600000F0AEFF01221349134800F0A9FF02220F
:104E70001249134800F0A4FF00221249124800F022
:104E80009FFF1249124800F0E7FD00F0D1FC4FF0FF
:104E9000FF33019364230093002300220D49022075
:104EA00000F044FD00231846BD4680BDC00300202D
:104EB000E8AA00080C000020F0AA0008100000205A
:104EC000F8AA0008C403002000AB0008DD4C00086D
:104ED0000CAB00088557000880B500AFFFF75EFFF8
:104EE000FFF7B8FF00BF80BD0FB480B582B000AF40
:104EF00007F114033B6000237B600AE03B681A1D46
:104F00003A601B68DBB2184600F060FD7B68013335
:104F10007B607A683B699A42F0DB00BF00BF0837CC
:104F2000BD46BDE8804004B0704780B500AF0422A4
:104F300002210220FFF7D8FF00BF80BD80B487B0F8
:104F400000AFF8607A603B600B46FB72194B1B7830
:104F50000F2B02D94FF0FF3325E0164B1B785A1C5C
:104F6000D1B2144A11705B01134A13447B617B690F
:104F7000FA681A607B69FA7A1A717B697A689A60B2
:104F80007B693A68DA607B693A6A1A617B697A6A96
:104F90005A617B693A8D1A837B6900225A837B6947
:104FA00000221A77002318461C37BD465DF8047BA3
:104FB000704700BFC8050020C803002080B584B03A
:104FC00000AF0023FB734DE0FB7B5B012A4A1344D7
:104FD000BB60BB689B68BA685269104698477860A6
:104FE0007B68002B0CD0BB685A8BBB681B8B9A422A
:104FF00009D2BB685B8B01339AB2BB685A8302E06B
:10500000BB6800225A83BB685A8BBB681B8B9A42D1
:1050100010D3BB681B7F002B0CD1BB6801221A7711
:10502000BB68DB68002B05D0BB68DB68BA685269D7
:1050300010469847BB685B8B002B10D1BB681B7F69
:10504000002B0CD0BB6800221A77BB681B69002BB1
:1050500005D0BB681B69BA68526910469847FB7B4C
:105060000133FB73054B1B78FA7B9A42ACD300BF2C
:1050700000BF1037BD4680BDC8030020C805002012
:1050800080B586B000AFF860B9607A600023FB7528
:1050900020E0FB7D5B01154A13443B613B691B68C3
:1050A000F9681846FBF794F80346002B0FD1BB684C
:1050B000002B03D03B691A79BB681A707B68002B00
:1050C00003D03B691A7F7B681A70002309E0FB7DDF
:1050D0000133FB75064B1B78FA7D9A42D9D34FF00A
:1050E000FF3318461837BD4680BD00BFC8030020F7
:1050F000C805002080B586B004AF1A4B54221A4967
:10510000002000F041F90023FB7120E0FB795B01F6
:10511000164A13443B603B681B683A681279002AC0
:1051200001D1134A00E0134A3968097F002901D0F0
:10513000114900E01149029101920093104B57224E
:105140000949022000F020F9FB790133FB710D4B76
:105150001B78FA799A42D9D300BF00BF0837BD4601
:1051600080BD00BF18AB00082CAB0008C8030020AE
:1051700054AB00085CAB000864AB00086CAB0008E3
:1051800074AB0008C805002080B400AF114B1B8829
:105190009AB2114B1B889BB29A420BD30E4B1B88C1
:1051A0009AB20C4B1B889BB2D31A9BB203F2FF330B
:1051B0009BB209E0084B1B889AB2064B1B889BB236
:1051C000D31A9BB2013B9BB21846BD465DF8047BE7
:1051D000704700BFCE090020CC09002080B584B004
:1051E00000AF78600B467B800DE01D4B1B889BB2A7
:1051F00001335A42C3F30903C2F3090258BF5342B1
:105200009AB2174B1A80FFF7BFFF03461A467B88F6
:105210009342EAD80023FB6019E0FB687A681344E4
:10522000104A128892B219780F4B99540D4B1B8873
:105230009BB201335A42C3F30903C2F3090258BFB8
:1052400053429AB2074B1A80FB680133FB607B889C
:10525000FA689A42E1DB00BF00BF1037BD4680BD4F
:10526000CC090020CE090020CC05002080B582B0FA
:1052700000AF1F4B1B78DBB2002B35D11D4B1B88B9
:105280009AB21D4B1B889BB29A422DD01B4B1B68B8
:10529000002B29D0184B1B889AB2164B1B889BB247
:1052A0009A4208D9144B1B889AB2124B1B889BB2A6
:1052B000D31AFB8005E00F4B1B889BB2C3F58063BC
:1052C000FB800F4AFB881380094B01221A700B4B9D
:1052D0001B68084A128892B211460A4A1144FA8899
:1052E0001846FEF79BFA00E000BF0837BD4680BDB8
:1052F000D0090020CC090020CE090020D4090020CC
:10530000DA090020CC05002080B500AF094B1B88CE
:105310009AB2094B1B8813449BB2C3F309039AB298
:10532000044B1A80054B00221A70FFF79FFF00BF45
:1053300080BD00BFCC090020DA090020D009002080
:1053400080B483B000AF78600A4A7B6813600021A4
:10535000094B0A461A80094B0A461A80084B00225C
:105360001A70084B00221A7000BF0C37BD465DF85A
:10537000047B7047D4090020CE090020CC0900200E
:10538000D0090020D809002008B490B5CAB004AFF5
:1053900007F58C73A3F58873196007F58C73A3F573
:1053A0008A731A6007F58C73A3F2091302461A7008
:1053B0004B4B1B7807F58C72A2F2091212789A42B5
:1053C000C0F085800023C7F81431D7F8143107F1F5
:1053D0001402D018D7F81431C3F5807107F58C7317
:1053E000A3F209131B783F4A52F8234007F58C7348
:1053F000A3F209131B78002B0AD007F58C73A3F2D4
:1054000009131B78012B01D1374B02E0374B00E029
:10541000374B07F58C72A2F58A721268029207F573
:105420008C72A2F588721268019200932346314A69
:1054300002F048FC0246D7F814311344C7F814317F
:1054400007F5947207F58C73A3F584731A60D7F887
:10545000143107F11402D018D7F81431C3F5807154
:1054600007F58C73A3F584731B68D7F8242102F029
:10547000F3FC0246D7F814311344C7F81431D7F8B7
:10548000143107F11402D018D7F81431C3F5807124
:10549000194B1A4A02F016FC0246D7F8143113448D
:1054A000C7F81431D7F81431B3F5807F03D94FF41E
:1054B0008073C7F81431D7F814319AB207F1140386
:1054C00011461846FFF78AFEFFF7D0FE00E000BF46
:1054D00007F58C77BD46BDE8904001B0704700BF2E
:1054E000D809002030000020A0AB0008A8AB0008BD
:1054F000ACAB0008B4AB0008C4AB0008CCAB0008F0
:105500000FB480B5C2B000AF07F58A7207F5847397
:10551000A3F584731A6007F58473A3F58473381DAB
:105520001B68D7F810214FF4807102F095FCC7F882
:105530000401D7F80431B3F5807F03D94FF48073A9
:10554000C7F80431D7F804319AB23B1D114618460A
:10555000FFF744FEFFF78AFE00BF07F58477BD46DC
:10556000BDE8804004B0704780B584B000AF78607B
:1055700039600023FB6059E0314AFB684FF48671C3
:1055800001FB03F313441B68002B0AD02C4AFB6871
:105590004FF4867101FB03F313441B687A689A4247
:1055A00041D1274AFB684FF4867101FB03F3134492
:1055B0007A681A60224AFB684FF4867101FB03F394
:1055C000134403F584733A681A601D4AFB684FF46C
:1055D000867101FB03F3134403F5827300221A80E2
:1055E000174AFB684FF4867101FB03F3134403F57C
:1055F000837300221A70FB684FF4867202FB03F378
:105600000F4A134404334FF4807219467868FEF74A
:1056100075F97B681B68DA687B681B6842F01002CA
:10562000DA60002307E0FB680133FB60FB68032BB3
:10563000A2DD4FF0FF3318461037BD4680BD00BFD6
:10564000DC09002080B584B000AF78600023FB60E7
:1056500033E01E4AFB684FF4867101FB03F31344E9
:105660001B687A689A4225D1184AFB684FF4867104
:1056700001FB03F3134403F5827300221A80134ADB
:10568000FB684FF4867101FB03F3134403F5837346
:1056900000221A70FB684FF4867202FB03F30B4A78
:1056A000134404334FF480720021184602F076FC54
:1056B000002307E0FB680133FB60FB68032BC8DDB8
:1056C0004FF0FF3318461037BD4680BDDC0900207F
:1056D00080B584B000AF78600023FB6048E0284AC2
:1056E000FB684FF4867101FB03F313441B687A686F
:1056F0009A423AD10023BB607B681B681B68BB6081
:105700007B681B685B68BB60BB687868FEF71BF949
:105710007B68DB6B1B685B689BB2C3F5807398B2D8
:10572000174AFB684FF4867101FB03F3134403F53A
:10573000827302461A80124AFB684FF4867101FB9D
:1057400003F3134403F5837301221A70FB684FF4CB
:10575000867202FB03F30A4A134404334FF4807247
:1057600019467868FEF7CAF806E0FB680133FB606B
:10577000FB68032BB3DD00BF00BF1037BD4680BD03
:10578000DC09002090B583B000AF00237B6044E0CB
:10579000264A7B684FF4867101FB03F3134403F53B
:1057A00083731B78DBB2002B34D0204A7B684FF424
:1057B000867101FB03F3134403F584731B68002B0C
:1057C00028D01A4A7B684FF4867101FB03F3134417
:1057D00003F584731B687A684FF4867101FB02F24B
:1057E00012490A44101D11497A684FF4867404FB6B
:1057F00002F20A4402F582721288114698470B4A57
:105800007B684FF4867101FB03F3134403F5837344
:1058100000221A707B6801337B607B68032BB7DD45
:1058200000BF00BF0C37BD4690BD00BFDC090020A3
:1058300080B483B000AF00237B600FE0144A7B6824
:105840005B01134400221A70114A7B685B01134408
:105850001C3300221A607B6801337B607B683F2B1E
:10586000ECDD00233B6007E00A4A3B68002142F878
:1058700023103B6801333B603B68032BF4DD064B90
:1058800000221A6000BF0C37BD465DF8047B7047EC
:10589000200E0020100E00200C0E002080B400AF5F
:1058A000044B1B680133034A136000BFBD465DF81B
:1058B000047B70470C0E002080B400AF034B1B68C4
:1058C0001846BD465DF8047B704700BF0C0E0020F3
:1058D00080B483B000AF00237B601BE0124A7B687A
:1058E0005B0113441B78002B11D10F4A7B685B01CD
:1058F000134401221A700C4A7B685B0113441C3369
:1059000000221A607B685B01074A134406E07B684B
:1059100001337B607B683F2BE0DD002318460C37AA
:10592000BD465DF8047B7047200E002080B586B030
:1059300000AFB9607A603B600346FB73FB7B032BCF
:1059400002D8BB68002B01D100232AE0FFF7C0FF7B
:1059500078617B69002B01D1002322E0FFF7ACFFC7
:1059600038617B693A695A603A693B681A447B69D5
:105970009A607B693A6ADA607B697A6A1A617B6944
:10598000BA685A617B697A689A61FB7B074A52F868
:1059900023207B69DA61FB7B04497A6941F8232083
:1059A000012318461837BD4680BD00BF100E0020E9
:1059B00080B483B000AF786039607A683B68D31AEE
:1059C00018460C37BD465DF8047B704780B584B03F
:1059D00000AF0346FB71FB79032B37D8FFF76CFF51
:1059E000B860FB791B4A52F82330FB602AE0FB6861
:1059F0001B78002B23D0FB681B69002B1FD0FB6892
:105A00009B681946B868FFF7D3FF0346002B16DBE7
:105A1000FB685B69FA68926910469847FB681B69E6
:105A2000B3F1FF3F04D0FB681B695A1EFB681A6183
:105A3000FB689A68FB68DB681A44FB689A60FB683D
:105A4000DB69FB60FB68002BD1D100E000BF1037A1
:105A5000BD4680BD100E002080B485B000AF7860D8
:105A600039600C4B1B681F2B0DDC0A4B1B685A1C42
:105A700008490A6008497A6841F83320064ADB0081
:105A800013443A685A6000BF1437BD465DF8047B82
:105A9000704700BF201700202016002080B586B078
:105AA00000AFF860B9607A6000237B6117E0114AAB
:105AB0007B6952F83330F9681846FAF789FB0346D8
:105AC000002B09D10B4A7B69DB0013445B687968C2
:105AD000B8689847034609E07B6901337B61064B50
