:020000040800F2
:1000000000000220691700083D1200084512000890
:100010004D120008551200085D1200080000000093
:100020000000000000000000000000006512000851
:100030007312000800000000811200088F120008EF
:10004000B9170008B9170008B9170008B917000850
:10005000B9170008B9170008B9170008B917000840
:10006000B9170008B9170008B9170008B917000830
:10007000B9170008B9170008B9170008B917000820
:10008000B9170008B9170008B9170008B917000810
:10009000B9170008B9170008B9170008B917000800
:1000A000B9170008B9170008B9170008B9170008F0
:1000B000B9170008B9170008B9170008B9170008E0
:1000C000B9170008B9170008B9170008B9170008D0
:1000D000B9170008A1120008B9170008B9170008DD
:1000E000B9170008B9170008B9170008B9170008B0
:1000F000B9170008B9170008B9170008B9170008A0
:10010000B9170008B9170008B9170008B91700088F
:10011000B9170008B9170008B5120008C91200087D
:10012000B9170008B9170008B9170008B91700086F
:10013000B9170008B9170008B9170008B91700085F
:10014000B9170008B9170008B9170008B91700084F
:10015000B9170008B9170008B9170008B91700083F
:10016000B9170008B9170008B9170008B91700082F
:10017000B9170008B9170008B917000800000000F7
:08018000B9170008B9170008C7
:1001900010B5054C237833B9044B13B10448AFF3C1
:1001A00000800123237010BDD80100200000000052
:1001B0007C89000808B5034B1BB103490348AFF322
:1001C000008008BD00000000DC0100207C890008E0
:1001D00001F0FF01102A2BDB10F0070F08D010F8F8
:1001E000013B013A8B422DD010F0070F42B3F6D1FC
:1001F000F0B441EA012141EA014122F007047FF015
:1002000000070023F0E80256083C85EA010586EA6B
:10021000010685FA47F5A3FA87F586FA47F6A5FAA7
:1002200087F68EB9EED1F0BC01F0FF0102F00702B3
:1002300032B110F8013B013A83EA010313B1F8D15E
:100240000020704701387047002D06BF354603383F
:10025000073815F0010F07D1013015F4807F02BF78
:10026000013015F4C03F0130F0BC0138704700BFC9
:10027000034613F8012B002AFBD1181A01387047E6
:1002800081F0004102E000BF83F0004330B54FEA47
:1002900041044FEA430594EA050F08BF90EA020FB4
:1002A0001FBF54EA000C55EA020C7FEA645C7FEA47
:1002B000655C00F0E2804FEA5454D4EB5555B8BF6A
:1002C0006D420CDD2C4480EA020281EA030382EADB
:1002D000000083EA010180EA020281EA0303362D6D
:1002E00088BF30BD11F0004F4FEA01314FF4801C40
:1002F0004CEA113102D0404261EB410113F0004F52
:100300004FEA03334CEA133302D0524263EB430308
:1003100094EA050F00F0A780A4F10104D5F1200EA6
:100320000DDB02FA0EFC22FA05F2801841F1000101
:1003300003FA0EF2801843FA05F359410EE0A5F1D5
:1003400020050EF1200E012A03FA0EFC28BF4CF006
:10035000020C43FA05F3C01851EBE37101F00045BC
:1003600007D54FF0000EDCF1000C7EEB00006EEBC9
:100370000101B1F5801F1BD3B1F5001F0CD3490853
:100380005FEA30004FEA3C0C04F101044FEA4452AA
:1003900012F5800F80F09A80BCF1004F08BF5FEA31
:1003A000500C50F1000041EB045141EA050130BD11
:1003B0005FEA4C0C404141EB0101013C28BFB1F523
:1003C000801FE9D291F0000F04BF01460020B1FA6E
:1003D00081F308BF2033A3F10B03B3F120020CDA41
:1003E0000C3208DD02F1140CC2F10C0201FA0CF01F
:1003F00021FA02F10CE002F11402D8BFC2F1200C84
:1004000001FA02F120FA0CFCDCBF41EA0C01904039
:10041000E41AA2BF01EB0451294330BD6FEA040482
:100420001F3C1CDA0C340EDC04F11404C4F120026D
:1004300020FA04F001FA02F340EA030021FA04F37F
:1004400045EA030130BDC4F10C04C4F1200220FAD6
:1004500002F001FA04F340EA0300294630BD21FA14
:1004600004F0294630BD94F0000F83F4801306BFDA
:1004700081F480110134013D4EE77FEA645C18BFCE
:100480007FEA655C29D094EA050F08BF90EA020F65
:1004900005D054EA000C04BF1946104630BD91EA5D
:1004A000030F1EBF0021002030BD5FEA545C05D160
:1004B0004000494128BF41F0004130BD14F580049F
:1004C0003CBF01F5801130BD01F0004545F0FE4113
:1004D00041F470014FF0000030BD7FEA645C1ABF48
:1004E000194610467FEA655C1CBF0B46024650EA7F
:1004F000013406BF52EA033591EA030F41F40021AB
:1005000030BD00BF90F0000F04BF0021704730B530
:100510004FF4806404F132044FF000054FF0000105
:1005200050E700BF90F0000F04BF0021704730B5C6
:100530004FF4806404F1320410F0004548BF40429B
:100540004FF000013EE700BF42004FEAE2014FEAF0
:1005500031014FEA02701FBF12F07F4393F07F4FCB
:1005600081F06051704732F07F4208BF704793F0CE
:100570007F4F04BF41F40021704730B54FF46074E1
:1005800001F0004521F000411CE700BF50EA0102E4
:1005900008BF704730B54FF000050AE050EA01028D
:1005A00008BF704730B511F0004502D5404261EBFD
:1005B00041014FF4806404F132045FEA915C3FF43E
:1005C000D8AE4FF003025FEADC0C18BF03325FEADB
:1005D000DC0C18BF033202EBDC02C2F1200300FA8C
:1005E00003FC20FA02F001FA03FE40EA0E0021FAB1
:1005F00002F11444BDE600BF70B54FF0FF0C4CF49F
:10060000E06C1CEA11541DBF1CEA135594EA0C0F50
:1006100095EA0C0F00F0DEF82C4481EA030621EA8B
:100620004C5123EA4C5350EA013518BF52EA0335C6
:1006300041F4801143F4801338D0A0FB02CE4FF078
:100640000005E1FB02E506F00042E0FB03E54FF0A8
:100650000006E1FB03569CF0000F18BF4EF0010EA0
:10066000A4F1FF04B6F5007F64F5407404D25FEA9C
:100670004E0E6D4146EB060642EAC62141EA55514F
:100680004FEAC52040EA5E504FEACE2EB4F1FD0C91
:1006900088BFBCF5E06F1ED8BEF1004F08BF5FEA0F
:1006A000500E50F1000041EB045170BD06F00046C1
:1006B00046EA010140EA020081EA0301B4EB5C046E
:1006C000C2BFD4EB0C0541EA045170BD41F4801166
:1006D0004FF0000E013C00F3AB8014F1360FDEBF8B
:1006E000002001F0004170BDC4F10004203C35DA67
:1006F0000C341BDC04F11404C4F1200500FA05F3EA
:1007000020FA04F001FA05F240EA020001F000428A
:1007100021F0004110EBD37021FA04F642EB060100
:100720005EEA430E08BF20EAD37070BDC4F10C042A
:10073000C4F1200500FA04F320FA05F001FA04F2EE
:1007400040EA020001F0004110EBD37041F10001DA
:100750005EEA430E08BF20EAD37070BDC4F12005E5
:1007600000FA05F24EEA020E20FA04F301FA05F24D
:1007700043EA020321FA04F001F0004121FA04F2F5
:1007800020EA020000EBD3705EEA430E08BF20EAC5
:10079000D37070BD94F0000F0FD101F000464000FF
:1007A00041EB010111F4801F08BF013CF7D041EA81
:1007B000060195F0000F18BF704703F00046520085
:1007C00043EB030313F4801F08BF013DF7D043EA56
:1007D0000603704794EA0C0F0CEA135518BF95EA0C
:1007E0000C0F0CD050EA410618BF52EA4306D1D193
:1007F00081EA030101F000414FF0000070BD50EAB2
:10080000410606BF1046194652EA430619D094EA3B
:100810000C0F02D150EA013613D195EA0C0F05D125
:1008200052EA03361CBF104619460AD181EA030179
:1008300001F0004141F0FE4141F470014FF0000031
:1008400070BD41F0FE4141F4780170BD70B54FF0CC
:10085000FF0C4CF4E06C1CEA11541DBF1CEA13554C
:1008600094EA0C0F95EA0C0F00F0A7F8A4EB05042E
:1008700081EA030E52EA03354FEA013100F0888025
:100880004FEA03334FF0805545EA131343EA1263EE
:100890004FEA022245EA111545EA10654FEA0026A3
:1008A0000EF000419D4208BF964244F1FD0404F55C
:1008B000407402D25B084FEA3202B61A65EB0305B8
:1008C0005B084FEA32024FF480104FF4002CB6EB75
:1008D000020E75EB030E22BFB61A754640EA0C00F5
:1008E0005B084FEA3202B6EB020E75EB030E22BF35
:1008F000B61A754640EA5C005B084FEA3202B6EB76
:10090000020E75EB030E22BFB61A754640EA9C0034
:100910005B084FEA3202B6EB020E75EB030E22BF04
:10092000B61A754640EADC0055EA060E18D04FEAC2
:10093000051545EA16754FEA06164FEAC30343EA62
:1009400052734FEAC2025FEA1C1CC0D111F4801F2F
:100950000BD141EA00014FF000004FF0004CB6E728
:1009600011F4801F04BF01430020B4F1FD0C88BFC7
:10097000BCF5E06F3FF6AFAEB5EB030C04BFB6EBD2
:10098000020C5FEA500C50F1000041EB045170BDC5
:100990000EF0004E4EEA113114EB5C04C2BFD4EBF2
:1009A0000C0541EA045170BD41F480114FF0000E76
:1009B000013C90E645EA060E8DE60CEA135594EAF2
:1009C0000C0F08BF95EA0C0F3FF43BAF94EA0C0FF5
:1009D0000AD150EA01347FF434AF95EA0C0F7FF46A
:1009E00025AF104619462CE795EA0C0F06D152EABE
:1009F00003353FF4FDAE1046194622E750EA4106A2
:100A000018BF52EA43067FF4C5AE50EA41047FF4B2
:100A10000DAF52EA43057FF4EBAE12E74FF0FF3C17
:100A200006E000BF4FF0010C02E000BF4FF0010CE8
:100A30004DF804CD4FEA410C7FEA6C5C4FEA430C61
:100A400018BF7FEA6C5C1BD001B050EA410C0CBFB0
:100A500052EA430C91EA030F02BF90EA020F002012
:100A6000704710F1000F91EA030F58BF994208BF79
:100A700090422CBFD8176FEAE37040F00100704736
:100A80004FEA410C7FEA6C5C02D150EA013C07D18D
:100A90004FEA430C7FEA6C5CD6D152EA033CD3D0D8
:100AA0005DF8040B704700BF8446104662468C46D2
:100AB0001946634600E000BF01B5FFF7B7FF002805
:100AC00048BF10F1000F01BD4DF808EDFFF7F4FF2E
:100AD0000CBF012000205DF808FB00BF4DF808EDB9
:100AE000FFF7EAFF34BF012000205DF808FB00BFDC
:100AF0004DF808EDFFF7E0FF94BF012000205DF8FE
:100B000008FB00BF4DF808EDFFF7CEFF94BF0120B2
:100B100000205DF808FB00BF4DF808EDFFF7C4FFAB
:100B200034BF012000205DF808FB00BF4FEA410CF4
:100B30007FEA6C5C02D150EA013C0AD14FEA430CD7
:100B40007FEA6C5C02D152EA033C02D14FF0000014
:100B500070474FF0010070474FEA410212F5001252
:100B600015D211D56FF47873B3EB625212D94FEAF4
:100B7000C12343F0004343EA505311F0004F23FADE
:100B800002F018BF404270474FF00000704750EA33
:100B9000013005D111F0004008BF6FF000407047F0
:100BA0004FF00000704700BF4A0011D212F500124A
:100BB00011D20DD56FF47873B3EB62520ED44FEAB5
:100BC000C12343F0004343EA505323FA02F0704735
:100BD0004FF00000704750EA013002D14FF0FF3073
:100BE00070474FF0000070474FEA4102B2F1E04316
:100BF00024BFB3F5001CDCF1FE5C0DD901F0004C04
:100C00004FEAC0024CEA5070B2F1004F40EB830053
:100C100008BF20F00100704711F0804F21D113F17F
:100C20003872BCBF01F00040704741F480114FEAB8
:100C30005252C2F11802C2F1200C10FA0CF320FA41
:100C400002F018BF40F001004FEAC1234FEAD3235E
:100C500003FA0CFC40EA0C0023FA02F34FEA4303C8
:100C6000CCE77FEA625307D150EA01331EBF4FF051
:100C7000FE4040F44000704701F0004040F0FE406C
:100C800040F40000704700BF53B94AB9002908BFBB
:100C900000281CBF4FF0FF314FF0FF3000F0BEB90D
:100CA000ADF1080C6DE904CE00F03CF8DDF804E08D
:100CB000DDE9022304B0704738B500220023044662
:100CC0000D46FFF70BFF28B920462946BDE83840FE
:100CD00000F00AB8204605F1004100F005F8404256
:100CE00061EB410138BD00BFD0B50C4B0022064678
:100CF0000F46FFF781FCFFF757FF0446FFF702FCA2
:100D0000074B0022FFF778FC02460B463046394677
:100D1000FFF7BAFAFFF748FF2146D0BD0000F03DCB
:100D20000000F0412DE9F047089D8E4604468846B4
:100D3000002B4AD18A42174662D9B2FA82F64EB1E6
:100D4000C6F1200301FA06F820FA03F3B74043EA9C
:100D50000808B4404FEA174E1FFA87FCB8FBFEF1B3
:100D6000230C0EFB118843EA084301FB0CF29A4264
:100D700009D9FB1801F1FF3080F0EA809A4240F275
:100D8000E78002393B449A1AA3B2B2FBFEF00EFB95
:100D9000102243EA024300FB0CFC9C4509D9FB18D6
:100DA00000F1FF3280F0D6809C4540F2D3803B4476
:100DB000023840EA0140A3EB0C0300211DB1F340CF
:100DC0000022C5E90032BDE8F0878B4205D90DB19C
:100DD000C5E9000100210846F5E7B3FA83F10029CF
:100DE00046D1734502D3824200F20581841A6EEB2C
:100DF000030201209046002DE5D0C5E90048E2E756
:100E0000002A00F09080B2FA82F6002E40F0A48012
:100E10008A1A030C4FEA174E80B2BCB20121B2FB12
:100E2000FEFC0EFB1C2243EA024304FB0CF29A4236
:100E300007D9FB180CF1FF3802D29A4200F2E08089
:100E4000C4469B1AB3FBFEF20EFB123340EA034387
:100E500002FB04F49C4207D9FB1802F1FF3002D2D6
:100E60009C4200F2CA8002461B1B42EA0C40A5E7E6
:100E7000C1F120068B4022FA06F71F430EFA01F457
:100E800020FA06F32EFA06FE4FEA1749234300FA2A
:100E900001F81FFA87FCBEFBF9F01C0C09FB10EEF1
:100EA00044EA0E4400FB0CFEA64502FA01F209D901
:100EB0003C1900F1FF3A80F09C80A64540F29980F1
:100EC00002383C44A4EB0E041FFA83FEB4FBF9F392
:100ED00009FB13444EEA044403FB0CFCA44508D967
:100EE0003C1903F1FF3E80F08280A4457FD9023B8C
:100EF0003C4443EA0040A4EB0C04A0FB02EC644534
:100F00007346E14662D35FD05DB1B8EB030264EB98
:100F1000090404FA06F622FA01F31E43CC40C5E99F
:100F2000006400214FE7B1FBF2FC010C41EA0E41E5
:100F300080B240EA01423B4638463C46B846BE468F
:100F40002026B1FBF7F1A2EB080241EA0C4166E76B
:100F5000014618E710462CE7C6F120022EFA02F3EC
:100F6000B740B14020FA02F24FEA174E0A43B3FBF2
:100F7000FEF8BCB20EFB1833110C41EA034108FB2A
:100F800004F9B04089454FEA104380B23ED9791840
:100F900008F1FF3C01D289451FD8A1EB0901B1FB43
:100FA000FEF909FB04F80EFB191192B242EA014264
:100FB000424529D2BA1809F1FF31C4D24245C2D202
:100FC000A9F102013A44BEE7F0459DD2BEEB02030F
:100FD0006CEB070C0138E14696E7A7EB0909494499
:100FE000A8F1020CB1FBFEF909FB04F8DBE773463C
:100FF0007FE7504666E70846FDE63B44023A33E7A2
:10100000ACF1020C3B441CE749469CE7A1EB09010B
:10101000C446B1FBFEF909FB04F8C4E7704700BF02
:1010200080B485B000AF0023FB60174B1B6B164AE2
:1010300043F004031363144B1B6B03F00403FB60C6
:10104000FB680023BB60104B1B6B0F4A43F080030F
:1010500013630D4B1B6B03F08003BB60BB68002365
:101060007B60094B1B6B084A43F001031363064B7B
:101070001B6B03F001037B607B6800BF1437BD4628
:101080005DF8047B704700BF0038024080B582B035
:1010900000AF7860391D4FF6FF730122034801F05D
:1010A0003BFF7B6818460837BD4680BD8C06002094
:1010B00080B500AF00F082FB00F028F8FFF7B0FF2A
:1010C00000F0A8FA00F0F4F900F028FA0B4801F05B
:1010D0000FFC0B4801F00CFC02F08EFF02F0B5FF94
:1010E000084B1B78012BF9D1064B00221A704FF4E4
:1010F00080620021044804F062F8EFE7F801002064
:1011000040020020880600208802002080B594B0AC
:1011100000AF07F1200330220021184604F04FF8F9
:1011200007F10C0300221A605A609A60DA601A61B3
:101130000023BB60284B1B6C274A43F08053136489
:10114000254B1B6C03F08053BB60BB6800237B60A6
:10115000224B1B68214A43F4804313601F4B1B68DA
:1011600003F480437B607B6801233B624FF4803350
:101170007B620223BB634FF48003FB6304233B6465
:10118000A8237B640223BB640423FB6407F12003D0
:10119000184600F0C5FE0346002B01D000F020F8F1
:1011A0000F23FB6002233B6100237B614FF4A053BC
:1011B000BB614FF48053FB6107F10C030521184616
:1011C00001F026F90346002B01D000F009F800BF1A
:1011D0005037BD4680BD00BF00380240007000405F
:1011E00080B400AF72B600BF00BFFDE780B483B02B
:1011F00000AF00237B60104B5B6C0F4A43F48043CD
:1012000053640D4B5B6C03F480437B607B6800236D
:101210003B60094B1B6C084A43F080531364064B38
:101220001B6C03F080533B603B6800BF0C37BD462E
:101230005DF8047B704700BF0038024080B400AF07
:1012400000BFFDE780B400AF00BFFDE780B400AF92
:1012500000BFFDE780B400AF00BFFDE780B400AF82
:1012600000BFFDE780B400AF00BFBD465DF8047B62
:10127000704780B400AF00BFBD465DF8047B704787
:1012800080B400AF00BFBD465DF8047B704780B5F9
:1012900000AF00F0E5FA02F017FF00BF80BD0000CC
:1012A00080B500AF024801F01FFF00BF80BD00BF46
:1012B0008C06002080B500AF024801F089FB00BF1A
:1012C00080BD00BFF801002080B500AF024801F0EA
:1012D0007FFB00BF80BD00BF4002002080B582B010
:1012E00000AF78607B68054A934202D1002002F08B
:1012F00083FF00BF0837BD4680BD00BFF801002056
:1013000080B400AF01231846BD465DF8047B7047EA
:1013100080B582B000AF7860396003F0A3FF034668
:1013200016221A604FF0FF3318460837BD4680BDBD
:1013300080B582B000AF78604FF0FF317868FFF77A
:10134000E7FF00BFFDE780B586B000AFF860B96089
:101350007A6000237B610AE0AFF300800146BB683E
:101360005A1CBA60CAB21A707B6901337B617A6910
:101370007B689A42F0DB7B6818461837BD4680BD13
:1013800080B586B000AFF860B9607A6000237B61F9
:1013900009E0BB685A1CBA601B781846FFF776FE56
:1013A0007B6901337B617A697B689A42F1DB7B68F8
:1013B00018461837BD4680BD80B483B000AF786052
:1013C0004FF0FF3318460C37BD465DF8047B70477D
:1013D00080B483B000AF786039603B684FF400524E
:1013E0005A60002318460C37BD465DF8047B7047F1
:1013F00080B483B000AF7860012318460C37BD4637
:101400005DF8047B704780B485B000AFF860B960C8
:101410007A60002318461437BD465DF8047B704798
:1014200080B586B000AF7860144A154BD31A7B6143
:101430007B693B61134B1B68002B02D1114B124A95
:101440001A60104B1A687B6813443A699A4207D2B3
:1014500003F008FF03460C221A604FF0FF3309E047
:10146000084B1B68FB60074B1A687B681344054AEE
:101470001360FB6818461837BD4680BD0000022087
:1014800000040000F40100203810002080B400AFF8
:10149000064BD3F88830054A43F47003C2F888300D
:1014A00000BFBD465DF8047B704700BF00ED00E063
:1014B00080B582B000AF3B4600221A605A60154BDF
:1014C000154A1A60134B42F2CF025A60114B0022A8
:1014D0009A60104B42F20F72DA600E4B00229A6152
:1014E0000C4801F0B5F90346002B01D0FFF778FE58
:1014F00000233B6000237B603B461946054801F012
:101500002BFC0346002B01D0FFF76AFE00BF083713
:10151000BD4680BDF80100200010004080B582B0BB
:1015200000AF3B4600221A605A60154B154A1A60FC
:10153000134B53225A60124B00229A60104B40F218
:10154000E732DA600E4B00229A610D4801F080F913
:101550000346002B01D0FFF743FE00233B6000232E
:101560007B603B461946064801F0F6FB0346002B1C
:1015700001D0FFF735FE00BF0837BD4680BD00BF74
:10158000400200200014004080B584B000AF7860B5
:101590007B681B681C4A934216D10023FB601B4BDF
:1015A0001B6C1A4A43F010031364184B1B6C03F0B6
:1015B0001003FB60FB6800220021362000F04BFA8C
:1015C000362000F064FA1AE07B681B68104A9342E8
:1015D00015D10023BB600D4B1B6C0C4A43F020035C
:1015E00013640A4B1B6C03F02003BB60BB68002232
:1015F0000021372000F02FFA372000F048FA00BF12
:101600001037BD4680BD00BF0010004000380240CA
:101610000014004080B500AF184B194A1A60174BF0
:101620004FF4E1325A60154B00229A60134B0022AE
:10163000DA60124B00221A61104B0C225A610F4BD8
:1016400000229A610D4B0022DA610C4801F014FC73
:101650000346002B01D0FFF7C3FD084B1B68DA6877
:10166000064B1B6842F01002DA604FF480620549B5
:10167000024801F0DCFC00BF80BD00BF8C060020EA
:10168000001001408802002080B58AB000AF786069
:1016900007F1140300221A605A609A60DA601A6136
:1016A0007B681B681D4A934234D100233B611C4B6D
:1016B0005B6C1B4A43F010035364194B5B6C03F0E3
:1016C00010033B613B690023FB60154B1B6B144A05
:1016D00043F001031363124B1B6B03F00103FB6028
:1016E000FB684FF4C0637B610223BB610023FB6195
:1016F00003233B6207237B6207F114031946094861
:1017000000F072FA00220021252000F0A4F9252023
:1017100000F0BDF900BF2837BD4680BD0010014074
:10172000003802400000024080B582B000AF78600F
:101730000B467B807B681B68074A934208D1074BA6
:1017400001221A704FF480620549064801F06FFCCF
:1017500000BF0837BD4680BD00100140880600204C
:10176000880200208C060020DFF834D0FFF78EFEC0
:101770000C480D490D4A002302E0D458C4500433EC
:10178000C4188C42F9D30A4A0A4C002301E01360C2
:101790000432A242FBD303F06BFDFFF789FC7047D4
:1017A0000000022000000020D8010020FC8D00086D
:1017B000D801002038100020FEE7000080B500AFFF
:1017C0000E4B1B680D4A43F4007313600B4B1B68F0
:1017D0000A4A43F480631360084B1B68074A43F4CA
:1017E00080731360032000F02BF90F2000F008F83D
:1017F000FFF7FCFC0023184680BD00BF003C024000
:1018000080B582B000AF7860124B1A68124B1B781B
:1018100019464FF47A73B3FBF1F3B2FBF3F31846B6
:1018200000F043F90346002B01D001230EE07B6852
:101830000F2B0AD8002279684FF0FF3000F00BF927
:10184000064A7B681360002300E00123184608372E
:10185000BD4680BD000000200800002004000020DC
:1018600080B400AF064B1B781A46064B1B68134426
:10187000044A136000BFBD465DF8047B704700BF9B
:1018800008000020D406002080B400AF034B1B6882
:101890001846BD465DF8047B704700BFD4060020A3
:1018A00080B485B000AF78607B6803F00703FB600D
:1018B0000C4BDB68BB60BA684FF6FF031340BB609C
:1018C000FB681A02BB68134343F0BF6343F4003361
:1018D000BB60044ABB68D36000BF1437BD465DF8E7
:1018E000047B704700ED00E080B400AF044BDB6880
:1018F0001B0A03F007031846BD465DF8047B7047DA
:1019000000ED00E080B483B000AF0346FB7197F9AF
:101910000730002B0BDBFB7903F01F02074997F917
:1019200007305B09012000FA02F241F8232000BFD2
:101930000C37BD465DF8047B704700BF00E100E056
:1019400080B483B000AF03463960FB7197F907306C
:10195000002B0ADB3B68DAB20C4997F90730120119
:10196000D2B20B4483F800230AE03B68DAB208499C
:10197000FB7903F00F03043B1201D2B20B441A7639
:1019800000BF0C37BD465DF8047B704700E100E006
:1019900000ED00E080B489B000AFF860B9607A6013
:1019A000FB6803F00703FB61FB69C3F10703042B2A
:1019B00028BF0423BB61FB690433062B02D9FB69F2
:1019C000033B00E000237B614FF0FF32BB6902FA6A
:1019D00003F3DA43BB681A407B699A404FF0FF314A
:1019E0007B6901FA03F3D9437B680B401343184624
:1019F0002437BD465DF8047B7047000080B582B097
:101A000000AF78607B68013BB3F1807F01D3012395
:101A10000FE00A4A7B68013B53600F214FF0FF3013
:101A2000FFF78EFF054B00229A60044B07221A60D5
:101A3000002318460837BD4680BD00BF10E000E017
:101A400080B582B000AF78607868FFF729FF00BFEB
:101A50000837BD4680BD80B586B000AF0346B9608B
:101A60007A60FB7300237B61FFF73EFF78617A6841
:101A7000B9687869FFF78EFF024697F90F30114673
:101A80001846FFF75DFF00BF1837BD4680BD80B523
:101A900082B000AF0346FB7197F907301846FFF795
:101AA00031FF00BF0837BD4680BD80B582B000AFB2
:101AB00078607868FFF7A2FF034618460837BD46EE
:101AC00080BD80B584B000AF78607B689B6DFB60A3
:101AD000FFF7DAFEB8607B6893F83530DBB2022B93
:101AE00008D07B6880225A657B68002283F8342006
:101AF000012352E07B681B681A687B681B6822F030
:101B000016021A607B681B685A697B681B6822F0A2
:101B100080025A617B681B6C002B03D17B689B6C35
:101B2000002B07D07B681B681A687B681B6822F053
:101B300008021A607B681B681A687B681B6822F0C1
:101B400001021A6013E0FFF79FFE0246BB68D31A3A
:101B5000052B0CD97B6820225A657B68032283F809
:101B600035207B68002283F83420032315E07B684E
:101B70001B681B6803F00103002BE4D17B68DB6D5D
:101B80003F229A40FB689A607B68012283F83520E7
:101B90007B68002283F83420002318461037BD46A6
:101BA00080BD80B483B000AF78607B6893F8353037
:101BB000DBB2022B04D07B6880225A6501230CE043
:101BC0007B68052283F835207B681B681A687B6870
:101BD0001B6822F001021A60002318460C37BD462C
:101BE0005DF8047B7047000080B489B000AF786076
:101BF000396000237B6100233B610023BB6100232C
:101C0000FB616BE10122FB6902FA03F37B613B6834
:101C10001B687A6913403B613A697B699A4240F0DC
:101C20005A813B685B6803F00303012B05D03B68D6
:101C30005B6803F00303022B30D17B689B68BB61B8
:101C4000FB695B00032202FA03F3DB43BA6913402A
:101C5000BB613B68DA68FB695B0002FA03F3BA69AF
:101C60001343BB617B68BA699A607B685B68BB6140
:101C70000122FB6902FA03F3DB43BA691340BB613B
:101C80003B685B681B0903F00102FB6902FA03F37E
:101C9000BA691343BB617B68BA695A603B685B6889
:101CA00003F00303032B17D07B68DB68BB61FB6980
:101CB0005B00032202FA03F3DB43BA691340BB6102
:101CC0003B689A68FB695B0002FA03F3BA69134345
:101CD000BB617B68BA69DA603B685B6803F0030349
:101CE000022B23D1FB69DA087B68083253F82230D3
:101CF000BB61FB6903F007039B000F2202FA03F3A9
:101D0000DB43BA691340BB613B681A69FB6903F0A6
:101D100007039B0002FA03F3BA691343BB61FB6933
:101D2000DA087B680832B96943F822107B681B68BF
:101D3000BB61FB695B00032202FA03F3DB43BA6970
:101D40001340BB613B685B6803F00302FB695B0007
:101D500002FA03F3BA691343BB617B68BA691A607C
:101D60003B685B6803F44033002B00F0B480002331
:101D7000FB60604B5B6C5F4A43F4804353645D4B94
:101D80005B6C03F48043FB60FB685B4AFB699B0868
:101D9000023352F82330BB61FB6903F003039B005D
:101DA0000F2202FA03F3DB43BA691340BB617B687D
:101DB000524A93422BD07B68514A934225D07B688C
:101DC000504A93421FD07B684F4A934219D07B6898
:101DD0004E4A934213D07B684D4A93420DD07B68A4
:101DE0004C4A934207D07B684B4A934201D1072368
:101DF0000EE008230CE006230AE0052308E0042394
:101E000006E0032304E0022302E0012300E00023B4
:101E1000FA6902F0030292009340BA691343BB616E
:101E20003549FB699B080233BA6941F823203B4BD3
:101E30009B68BB613B69DB43BA691340BB613B688C
:101E40005B6803F48013002B03D0BA693B6913432A
:101E5000BB61324ABB699360304BDB68BB613B6955
:101E6000DB43BA691340BB613B685B6803F4001352
:101E7000002B03D0BA693B691343BB61274ABB6996
:101E8000D360264B5B68BB613B69DB43BA69134097
:101E9000BB613B685B6803F40033002B03D0BA6975
:101EA0003B691343BB611D4ABB6953601B4B1B68F5
:101EB000BB613B69DB43BA691340BB613B685B684C
:101EC00003F48033002B03D0BA693B691343BB6131
:101ED000124ABB691360FB690133FB61FB690F2B7D
:101EE0007FF690AE00BF00BF2437BD465DF8047B8F
:101EF000704700BF00380240003801400000024037
:101F00000004024000080240000C024000100240A1
:101F10000014024000180240001C0240003C014036
:101F200080B586B000AF78607B68002B01D10123BB
:101F300067E27B681B6803F00103002B75D0884BB8
:101F40009B6803F00C03042B0CD0854B9B6803F0BB
:101F50000C03082B12D1824B5B6803F48003B3F5AA
:101F6000800F0BD17E4B1B6803F40033002B5BD03A
:101F70007B685B68002B57D1012342E27B685B687A
:101F8000B3F5803F06D1764B1B68754A43F4803326
:101F900013601DE07B685B68B3F5A02F0CD1704B1C
:101FA0001B686F4A43F4802313606D4B1B686C4AB7
:101FB00043F4803313600BE0694B1B68684A23F4D9
:101FC00080331360664B1B68654A23F480231360DB
:101FD0007B685B68002B13D0FFF756FC386108E084
:101FE000FFF752FC02463B69D31A642B01D9032345
:101FF00007E25B4B1B6803F40033002BF0D014E0C6
:10200000FFF742FC386108E0FFF73EFC02463B69FF
:10201000D31A642B01D90323F3E1514B1B6803F45A
:102020000033002BF0D100E000BF7B681B6803F099
:102030000203002B63D04A4B9B6803F00C03002B78
:102040000BD0474B9B6803F00C03082B1CD1444B6F
:102050005B6803F48003002B16D1414B1B6803F02F
:102060000203002B05D07B68DB68012B01D0012324
:10207000C7E13B4B1B6823F0F8027B681B69DB0060
:10208000374913430B603AE07B68DB68002B20D0B4
:10209000344B01221A60FFF7F7FB386108E0FFF7C5
:1020A000F3FB02463B69D31A022B01D90323A8E1B3
:1020B0002B4B1B6803F00203002BF0D0284B1B684E
:1020C00023F0F8027B681B69DB00254913430B6092
:1020D00015E0244B00221A60FFF7D6FB386108E0B8
:1020E000FFF7D2FB02463B69D31A022B01D9032327
:1020F00087E11B4B1B6803F00203002BF0D17B68C8
:102100001B6803F00803002B36D07B685B69002B4B
:1021100016D0154B01221A60FFF7B6FB386108E0B4
:10212000FFF7B2FB02463B69D31A022B01D9032306
:1021300067E10B4B5B6F03F00203002BF0D01BE059
:10214000094B00221A60FFF79FFB38610EE0FFF792
:102150009BFB02463B69D31A022B07D9032350E1AC
:102160000038024000004742800E4742884B5B6FB8
:1021700003F00203002BEAD17B681B6803F0040321
:10218000002B00F097800023FB75814B1B6C03F044
:102190008053002B0FD10023BB607D4B1B6C7C4A0E
:1021A00043F0805313647A4B1B6C03F08053BB6085
:1021B000BB680123FB75774B1B6803F48073002B0E
:1021C00018D1744B1B68734A43F480731360FFF794
:1021D0005BFB386108E0FFF757FB02463B69D31A07
:1021E000022B01D903230CE16A4B1B6803F48073B3
:1021F000002BF0D07B689B68012B06D1644B1B6FD2
:10220000634A43F0010313671CE07B689B68052B5E
:102210000CD15F4B1B6F5E4A43F0040313675C4BAA
:102220001B6F5B4A43F0010313670BE0584B1B6FB6
:10223000574A23F001031367554B1B6F544A23F091
:10224000040313677B689B68002B15D0FFF71CFB0A
:1022500038610AE0FFF718FB02463B69D31A41F2E6
:102260008832934201D90323CBE0494B1B6F03F023
:102270000203002BEED014E0FFF706FB38610AE002
:10228000FFF702FB02463B69D31A41F288329342C0
:1022900001D90323B5E03E4B1B6F03F00203002B73
:1022A000EED1FB7D012B05D1394B1B6C384A23F055
:1022B000805313647B689B69002B00F0A180344B32
:1022C0009B6803F00C03082B5CD07B689B69022B96
:1022D00041D1314B00221A60FFF7D6FA386108E08D
:1022E000FFF7D2FA02463B69D31A022B01D9032326
:1022F00087E0274B1B6803F00073002BF0D17B684D
:10230000DA697B681B6A1A437B685B6A9B011A4324
:102310007B689B6A5B08013B1B041A437B68DB6A92
:102320001B061B4913434B601B4B01221A60FFF72E
:10233000ABFA386108E0FFF7A7FA02463B69D31A07
:10234000022B01D903235CE0114B1B6803F00073DF
:10235000002BF0D054E0104B00221A60FFF794FAE3
:10236000386108E0FFF790FA02463B69D31A022B66
:1023700001D9032345E0064B1B6803F00073002BD3
:10238000F0D13DE07B689B69012B07D1012338E048
:102390000038024000700040600047421B4B5B6801
:1023A000FB607B689B69012B28D0FB6803F48002EB
:1023B0007B68DB699A4221D1FB6803F03F027B68AE
:1023C0001B6A9A421AD1FA6847F6C07313407A68BA
:1023D000526A9201934211D1FB6803F440327B6848
:1023E0009B6A5B08013B1B049A4207D1FB6803F020
:1023F00070627B68DB6A1B069A4201D0012300E011
:10240000002318461837BD4680BD00BF0038024083
:1024100080B584B000AF786039607B68002B01D153
:102420000123CCE0684B1B6803F007033A689A422B
:102430000CD9654B3A68D2B21A70634B1B6803F033
:1024400007033A689A4201D00123B8E07B681B6811
:1024500003F00203002B20D07B681B6803F0040309
:10246000002B05D0594B9B68584A43F4E0539360C6
:102470007B681B6803F00803002B05D0534B9B6857
:10248000524A43F460439360504B9B6823F0F00240
:102490007B689B684D4913438B607B681B6803F026
:1024A0000103002B44D07B685B68012B07D1474BAD
:1024B0001B6803F40033002B19D101237FE07B68F4
:1024C0005B68022B03D07B685B68032B07D13F4B13
:1024D0001B6803F00073002B09D101236FE03B4B15
:1024E0001B6803F00203002B01D1012367E0374B87
:1024F0009B6823F003027B685B68344913438B605D
:10250000FFF7C2F9F8600AE0FFF7BEF90246FB6880
:10251000D31A41F28832934201D903234FE02B4B67
:102520009B6803F00C027B685B689B009A42EBD1CE
:10253000254B1B6803F007033A689A420CD2224BE2
:102540003A68D2B21A70204B1B6803F007033A684E
:102550009A4201D0012332E07B681B6803F0040338
:10256000002B08D0194B9B6823F4E0527B68DB6892
:10257000164913438B607B681B6803F00803002B2C
:1025800009D0124B9B6823F460427B681B69DB0017
:102590000E4913438B6000F021F802460B4B9B68F9
:1025A0001B0903F00F030A49CB5C22FA03F3094A23
:1025B0001360094B1B681846FFF722F900231846E1
:1025C0001037BD4680BD00BF003C024000380240CD
:1025D000AC89000800000020040000202DE9B04F65
:1025E00094B000AF00237B640023FB6400233B64B2
:1025F0000023BB64794B9B6803F00C03082B0DD0C0
:10260000082B00F2E180002B02D0042B03D0DBE08A
:10261000734BBB64DBE0734BBB64D8E06F4B5B6810
:1026200003F03F037B646D4B5B6803F48003002B76
:1026300063D06A4B5B689B090022BB63FA63BB6B88
:10264000C3F308033B6300237B63D7E90C452246B1
:102650002B464FF000004FF00001590141EAD261D2
:10266000500102460B462146511A3961294663EB57
:1026700001037B614FF000024FF00003D7E904AB88
:1026800059468B01514643EA916351468A015146AE
:10269000B2EB0108594663EB01094FF000024FF01D
:1026A00000034FEAC90343EA58734FEAC802904651
:1026B0009946234618EB0303BB602B4649EB030303
:1026C000FB604FF000024FF00003D7E902452946B6
:1026D0004B02214643EAD15321464A02104619468D
:1026E0007B6C0022BB62FA62D7E90A23FEF7CCFAC0
:1026F00002460B461346FB6458E0384B5B689B0967
:10270000002218461146C0F308033B6200237B6297
:10271000D7E9088942464B464FF000004FF00001D0
:10272000590141EAD261500102460B464146B2EBE3
:10273000010A494663EB010B4FF000024FF0000322
:102740004FEA8B1343EA9A634FEA8A12B2EB0A0408
:1027500063EB0B054FF000024FF00003EB0043EA80
:102760005473E20014461D464346E3183B604B4653
:1027700045EB03037B604FF000024FF00003D7E905
:10278000004529468B02214643EA915321468A029D
:10279000104619467B6C0022BB61FA61D7E906231B
:1027A000FEF772FA02460B461346FB640B4B5B685E
:1027B0001B0C03F0030301335B003B64FA6C3B6CBE
:1027C000B2FBF3F3BB6402E0054BBB6400BFBB6C20
:1027D00018465037BD46BDE8B08F00BF00380240F4
:1027E0000024F40000127A0080B400AF034B1B6891
:1027F0001846BD465DF8047B704700BF000000200E
:1028000080B500AFFFF7F0FF0246054B9B689B0ABF
:1028100003F007030349CB5C22FA03F3184680BD9B
:1028200000380240BC89000880B500AFFFF7DCFF2C
:102830000246054B9B685B0B03F007030349CB5C27
:1028400022FA03F3184680BD00380240BC89000814
:1028500080B582B000AF78607B68002B01D1012386
:1028600041E07B6893F83D30DBB2002B06D17B68FA
:10287000002283F83C207868FEF786FE7B680222FF
:1028800083F83D207B681A687B680433194610463C
:1028900000F0B6F97B68012283F846207B680122AC
:1028A00083F83E207B68012283F83F207B68012269
:1028B00083F840207B68012283F841207B68012255
:1028C00083F842207B68012283F843207B68012241
:1028D00083F844207B68012283F845207B6801222D
:1028E00083F83D20002318460837BD4680BD000010
:1028F00080B485B000AF78607B6893F83D30DBB280
:10290000012B01D001234EE07B68022283F83D2099
:102910007B681B68DA687B681B6842F00102DA603A
:102920007B681B68234A934222D07B681B68B3F103
:10293000804F1DD07B681B681F4A934218D07B686C
:102940001B681E4A934213D07B681B681C4A934243
:102950000ED07B681B681B4A934209D07B681B68BA
:10296000194A934204D07B681B68184A934211D1DC
:102970007B681B689B6803F00703FB60FB68062B02
:1029800010D07B681B681A687B681B6842F00102E4
:102990001A6007E07B681B681A687B681B6842F056
:1029A00001021A60002318461437BD465DF8047B07
:1029B000704700BF000001400004004000080040D4
:1029C000000C00400004014000400140001800409D
:1029D00080B584B000AF78607B681B68DB68FB6003
:1029E0007B681B681B69BB60BB6803F00203002B9C
:1029F00020D0FB6803F00203002B1BD07B681B6810
:102A00006FF002021A617B6801221A777B681B68EB
:102A10009B6903F00303002B03D0786800F0D2F821
:102A200005E0786800F0C4F8786800F0D5F87B68B5
:102A300000221A77BB6803F00403002B20D0FB6848
:102A400003F00403002B1BD07B681B686FF00402AB
:102A50001A617B6802221A777B681B689B6903F402
:102A60004073002B03D0786800F0ACF805E078687C
:102A700000F09EF8786800F0AFF87B6800221A77C3
:102A8000BB6803F00803002B20D0FB6803F00803A9
:102A9000002B1BD07B681B686FF008021A617B68F3
:102AA00004221A777B681B68DB6903F00303002BA1
:102AB00003D0786800F086F805E0786800F078F8D0
:102AC000786800F089F87B6800221A77BB6803F009
:102AD0001003002B20D0FB6803F01003002B1BD049
:102AE0007B681B686FF010021A617B6808221A77F6
:102AF0007B681B68DB6903F44073002B03D07868A4
:102B000000F060F805E0786800F052F8786800F0AE
:102B100063F87B6800221A77BB6803F00103002B7F
:102B20000CD0FB6803F00103002B07D07B681B6807
:102B30006FF001021A617868FEF7D0FBBB6803F002
:102B40008003002B0CD0FB6803F08003002B07D020
:102B50007B681B686FF080021A61786800F082F968
:102B6000BB6803F04003002B0CD0FB6803F040036C
:102B7000002B07D07B681B686FF040021A617868F1
:102B800000F034F8BB6803F02003002B0CD0FB6886
:102B900003F02003002B07D07B681B686FF0200236
:102BA0001A61786800F054F900BF1037BD4680BD47
:102BB00080B483B000AF786000BF0C37BD465DF8CD
:102BC000047B704780B483B000AF786000BF0C37DF
:102BD000BD465DF8047B704780B483B000AF786079
:102BE00000BF0C37BD465DF8047B704780B483B0EE
:102BF00000AF786000BF0C37BD465DF8047B7047BE
:102C000080B485B000AF786039607B681B68FB607A
:102C10007B68464A934213D07B68B3F1804F0FD054
:102C20007B68434A93420BD07B68424A934207D069
:102C30007B68414A934203D07B68404A934208D163
:102C4000FB6823F07003FB603B685B68FA68134322
:102C5000FB607B68354A93422BD07B68B3F1804F91
:102C600027D07B68324A934223D07B68314A934213
:102C70001FD07B68304A93421BD07B682F4A934217
:102C800017D07B682E4A934213D07B682D4A93421B
:102C90000FD07B682C4A93420BD07B682B4A93421F
:102CA00007D07B682A4A934203D07B68294A934223
:102CB00008D1FB6823F44073FB603B68DB68FA686B
:102CC0001343FB60FB6823F080023B685B6913439E
:102CD000FB607B68FA681A603B689A687B68DA6216
:102CE0003B681A687B689A627B68104A934203D0FB
:102CF0007B68124A934203D13B681A697B681A6366
:102D00007B6801225A617B681B6903F00103012B78
:102D100005D17B681B6923F001027B681A6100BF43
:102D20001437BD465DF8047B704700BF00000140CA
:102D30000004004000080040000C00400004014076
:102D4000004001400044014000480140001800409C
:102D5000001C00400020004080B485B000AF7860C7
:102D600039607B6893F83C30012B01D102235AE093
:102D70007B68012283F83C207B68022283F83D2097
:102D80007B681B685B68FB607B681B689B68BB603B
:102D9000FB6823F07003FB603B681B68FA68134311
:102DA000FB607B681B68FA685A607B681B68214A75
:102DB000934222D07B681B68B3F1804F1DD07B68A3
:102DC0001B681D4A934218D07B681B681B4A9342BC
:102DD00013D07B681B681A4A93420ED07B681B682D
:102DE000184A934209D07B681B68174A934204D063
:102DF0007B681B68154A93420CD1BB6823F08003A3
:102E0000BB603B685B68BA681343BB607B681B6848
:102E1000BA689A607B68012283F83D207B680022B3
:102E200083F83C20002318461437BD465DF8047B28
:102E3000704700BF0000014000040040000800404F
:102E4000000C004000040140004001400018004018
:102E500080B483B000AF786000BF0C37BD465DF82A
:102E6000047B704780B483B000AF786000BF0C373C
:102E7000BD465DF8047B704780B582B000AF7860D6
:102E80007B68002B01D1012342E07B6893F841303D
:102E9000DBB2002B06D17B68002283F840207868E3
:102EA000FEF7F2FB7B68242283F841207B681B68D5
:102EB000DA687B681B6822F40052DA60786800F0F8
:102EC000F3FD7B681B681A697B681B6822F49042DB
:102ED0001A617B681B685A697B681B6822F02A02AA
:102EE0005A617B681B68DA687B681B6842F4005291
:102EF000DA607B6800225A647B68202283F84120D4
:102F00007B68202283F842207B6800225A630023DA
:102F100018460837BD4680BD80B58AB002AFF8605C
:102F2000B9603B601346FB8000237B61FB6893F82C
:102F30004130DBB2202B75D1BB68002B02D0FB885F
:102F4000002B01D101236EE0FB6800225A64FB686C
:102F5000212283F84120FEF797FC7861FB68FA880C
:102F60009A84FB68FA88DA84FB689B68B3F5805F13
:102F700008D1FB681B69002B04D10023FB61BB68EF
:102F8000BB6103E0BB68FB610023BB612EE03B68D3
:102F900000937B6900228021F86800F055FB03460E
:102FA000002B05D0FB68202283F8412003233AE060
:102FB000FB69002B0BD1BB691B881A46FB681B6899
:102FC000C2F308025A60BB690233BB6107E0FB69C8
:102FD0001A78FB681B685A60FB690133FB61FB6868
:102FE000DB8C9BB2013B9AB2FB68DA84FB68DB8C1A
:102FF0009BB2002BCBD13B6800937B690022402120
:10300000F86800F021FB0346002B05D0FB68202266
:1030100083F84120032306E0FB68202283F8412047
:10302000002300E0022318462037BD4680BD80B54E
:103030008CB000AFF860B9601346FB80FB6893F872
:103040004230DBB2202B4AD1BB68002B02D0FB8878
:10305000002B01D1012343E0FB6801221A63FB68C6
:1030600000225A63FB881A46B968F86800F045FBED
:10307000034687F82F3097F82F30002B2CD1FB68B0
:103080001B6B012B25D100233B61FB681B681B6870
:103090003B61FB681B685B683B613B69FB681B68C5
:1030A0000C33BB61BB6953E8003F7B617B6943F034
:1030B0001003BB62FB681B680C33BA6A7A623B621E
:1030C000396A7A6A41E80023FB61FB69002BE5D18C
:1030D00002E0012387F82F3097F82F3000E0022319
:1030E00018463037BD4680BD80B5BAB000AF7860B5
:1030F0007B681B681B68C7F8E4307B681B68DB686B
:10310000C7F8E0307B681B685B69C7F8DC300023D8
:10311000C7F8D8300023C7F8D430D7F8E43003F02C
:103120000F03C7F8D830D7F8D830002B0FD1D7F815
:10313000E43003F02003002B09D0D7F8E03003F08F
:103140002003002B03D0786800F0F0FB5BE2D7F897
:10315000D830002B00F0DE80D7F8DC3003F001031C
:10316000002B06D1D7F8E03003F49073002B00F069
:10317000D180D7F8E43003F00103002B0BD0D7F84F
:10318000E03003F48073002B05D07B685B6C43F068
:1031900001027B685A64D7F8E43003F00403002B83
:1031A0000BD0D7F8DC3003F00103002B05D07B688F
:1031B0005B6C43F002027B685A64D7F8E43003F09A
:1031C0000203002B0BD0D7F8DC3003F00103002BF7
:1031D00005D07B685B6C43F004027B685A64D7F8C7
:1031E000E43003F00803002B11D0D7F8E03003F0EF
:1031F0002003002B05D1D7F8DC3003F00103002BAE
:1032000005D07B685B6C43F008027B685A647B687E
:103210005B6C002B00F0F281D7F8E43003F0200360
:10322000002B08D0D7F8E03003F02003002B02D0A9
:10323000786800F07BFB7B681B685B6903F04003E8
:10324000402B0CBF01230023DBB2C7F8D4307B68CE
:103250005B6C03F00803002B03D1D7F8D430002BAC
:103260004FD0786800F083FA7B681B685B6903F0D5
:103270004003402B41D17B681B681433C7F89C3056
:10328000D7F89C3053E8003FC7F89830D7F898300B
:1032900023F04003C7F8D0307B681B681433D7F89D
:1032A000D020C7F8A820C7F8A430D7F8A410D7F8C2
:1032B000A82041E80023C7F8A030D7F8A030002BA1
:1032C000D9D17B68DB6B002B13D07B68DB6B7E4A2C
:1032D0001A657B68DB6B1846FEF763FC0346002B20
:1032E00016D07B68DB6B1B6D7A68D26B10469847F3
:1032F0000EE0786800F09EF90AE0786800F09AF92C
:1033000006E0786800F096F97B6800225A6475E15F
:1033100000BF73E17B681B6B012B40F04F81D7F836
:10332000E43003F01003002B00F04881D7F8E030C0
:1033300003F01003002B00F041810023BB607B6889
:103340001B681B68BB607B681B685B68BB60BB68F5
:103350007B681B685B6903F04003402B40F0B6803C
:103360007B68DB6B1B685B68A7F8BE30B7F8BE30C4
:10337000002B00F045817B689B8DB7F8BE209A42F8
:1033800080F03E817B68B7F8BE20DA857B68DB6B16
:10339000DB69B3F5807F00F088807B681B680C33A5
:1033A000C7F88830D7F8883053E8003FC7F8843032
:1033B000D7F8843023F48073C7F8B8307B681B6873
:1033C0000C33D7F8B820C7F89420C7F89030D7F856
:1033D0009010D7F8942041E80023C7F88C30D7F834
:1033E0008C30002BD9D17B681B6814337B677B6FD3
:1033F00053E8003F3B673B6F23F00103C7F8B4304D
:103400007B681B681433D7F8B420C7F88020FB67AB
:10341000F96FD7F8802041E80023BB67BB6F002B12
:10342000E1D17B681B6814333B663B6E53E8003F79
:10343000FB65FB6D23F04003C7F8B0307B681B6869
:103440001433D7F8B020FA66BB66B96EFA6E41E85D
:1034500000237B667B6E002BE3D17B68202283F800
:1034600042207B6800221A637B681B680C33FB6474
:10347000FB6C53E8003FBB64BB6C23F01003C7F840
:10348000AC307B681B680C33D7F8AC20BA657B6521
:10349000796DBA6D41E800233B653B6D002BE3D1AC
:1034A0007B68DB6B1846FEF70CFB7B6802225A63D5
:1034B0007B689A8D7B68DB8D9BB2D31A9BB21946D1
:1034C0007868FEF731F99BE0353800087B689A8D03
:1034D0007B68DB8D9BB2D31AA7F8CE307B68DB8D7F
:1034E0009BB2002B00F08E80B7F8CE30002B00F09E
:1034F00089807B681B680C33BB63BB6B53E8003F60
:103500007B637B6B23F49073C7F8C8307B681B68C0
:103510000C33D7F8C8207A643B64396C7A6C41E884
:103520000023FB63FB6B002BE3D17B681B68143328
:103530007B627B6A53E8003F3B623B6A23F00103F6
:10354000C7F8C4307B681B681433D7F8C4203A63CB
:10355000FB62F96A3A6B41E80023BB62BB6A002B4D
:10356000E3D17B68202283F842207B6800221A6323
:103570007B681B680C333B613B6953E8003FFB6091
:10358000FB6823F01003C7F8C0307B681B680C335E
:10359000D7F8C020FA61BB61B969FA6941E8002334
:1035A0007B617B69002BE3D17B6802225A63B7F809
:1035B000CE3019467868FEF7B7F823E0D7F8E43044
:1035C00003F08003002B09D0D7F8E03003F080032C
:1035D000002B03D0786800F041F914E0D7F8E4300C
:1035E00003F04003002B0ED0D7F8E03003F0400387
:1035F000002B08D0786800F081F904E000BF02E0F9
:1036000000BF00E000BFE837BD4680BD80B483B096
:1036100000AF786000BF0C37BD465DF8047B704793
:1036200080B483B000AF786000BF0C37BD465DF852
:10363000047B704780B483B000AF786000BF0C3764
:10364000BD465DF8047B704780B586B000AFF8607A
:10365000B9603B601346FB713BE03B6AB3F1FF3F4F
:1036600037D0FEF711F902463B68D31A3A6A9A42FC
:1036700002D33B6A002B01D103233AE0FB681B68AD
:10368000DB6803F00403002B23D0BB68802B20D021
:10369000BB68402B1DD0FB681B681B6803F0080348
:1036A000082B16D100237B61FB681B681B687B61BC
:1036B000FB681B685B687B617B69F86800F057F802
:1036C000FB6808225A64FB68002283F8402001232B
:1036D0000FE0FB681B681A68BB681340BA689A421F
:1036E0000CBF01230023DBB21A46FB799A42B4D007
:1036F000002318461837BD4680BD80B485B000AFA2
:10370000F860B9601346FB80FB68BA689A62FB6890
:10371000FA889A85FB68FA88DA85FB6800225A6481
:10372000FB68222283F84220FB681B69002B07D02C
:10373000FB681B68DA68FB681B6842F48072DA6019
:10374000FB681B685A69FB681B6842F001025A61FA
:10375000FB681B68DA68FB681B6842F02002DA60CD
:10376000002318461437BD465DF8047B704780B4CB
:1037700095B000AF78607B681B680C337B637B6B14
:1037800053E8003F3B633B6B23F49073FB647B681F
:103790001B680C33FA6C3A64FB63F96B3A6C41E8D2
:1037A0000023BB63BB6B002BE5D17B681B68143324
:1037B0003B623B6A53E8003FFB61FB6923F0010376
:1037C000BB647B681B681433BA6CFA62BB62B96A6B
:1037D000FA6A41E800237B627B6A002BE5D17B68B3
:1037E0001B6B012B19D17B681B680C33FB60FB68DA
:1037F00053E8003FBB60BB6823F010037B647B6829
:103800001B680C337A6CBA617B617969BA6941E8EB
:1038100000233B613B69002BE5D17B68202283F8C4
:1038200042207B6800221A6300BF5437BD465DF812
:10383000047B704780B584B000AF78607B689B6B79
:10384000FB60FB680022DA85FB680022DA84F868F6
:10385000FFF7F0FE00BF1037BD4680BD80B485B0D5
:1038600000AF78607B6893F84130DBB2212B3ED10A
:103870007B689B68B3F5805F14D17B681B69002B64
:1038800010D17B681B6AFB60FB681B881A467B684B
:103890001B68C2F308025A607B681B6A9A1C7B682B
:1038A0001A6208E07B681B6A591C7A6811621A78F0
:1038B0007B681B685A607B68DB8C9BB2013B9BB2C8
:1038C0007A681946D184002B0FD17B681B68DA68AF
:1038D0007B681B6822F08002DA607B681B68DA680C
:1038E0007B681B6842F04002DA60002300E002239C
:1038F00018461437BD465DF8047B704780B582B02A
:1039000000AF78607B681B68DA687B681B6822F010
:103910004002DA607B68202283F841207868FFF754
:1039200075FE002318460837BD4680BD80B58CB0B3
:1039300000AF78607B6893F84230DBB2222B40F016
:10394000AE807B689B68B3F5805F17D17B681B698D
:10395000002B13D10023FB627B689B6ABB627B68F0
:103960001B685B689BB2C3F308039AB2BB6A1A80F8
:103970007B689B6A9A1C7B689A6226E07B689B6ADC
:10398000FB620023BB627B689B68B3F5805F07D056
:103990007B689B68002B0AD17B681B69002B06D1D2
:1039A0007B681B685B68DAB2FB6A1A7008E07B68A8
:1039B0001B685B68DBB203F07F03DAB2FB6A1A7044
:1039C0007B689B6A5A1C7B689A627B68DB8D9BB222
:1039D000013B9BB27A681946D185002B5DD17B688B
:1039E0001B68DA687B681B6822F02002DA607B685B
:1039F0001B68DA687B681B6822F48072DA607B6877
:103A00001B685A697B681B6822F001025A617B6857
:103A1000202283F842207B6800225A637B681B6B5C
:103A2000012B35D17B6800221A637B681B680C333D
:103A30007B617B6953E8003F3B613B6923F01003E6
:103A40007B627B681B680C337A6A3A62FB61F969B6
:103A50003A6A41E80023BB61BB69002BE5D17B6872
:103A60001B681B6803F01003102B0AD10023FB60B6
:103A70007B681B681B68FB607B681B685B68FB607E
:103A8000FB687B689B8D19467868FDF74DFE02E068
:103A90007868FFF7C5FD002302E0002300E0022361
:103AA00018463037BD4680BD2DE9B04FC0B000AFDD
:103AB000C7F8F400D7F8F4301B681B6923F44050B2
:103AC000D7F8F430D968D7F8F4301A6840EA01031F
:103AD0001361D7F8F4309A68D7F8F4301B691A43A9
:103AE000D7F8F4305B691A43D7F8F430DB69134335
:103AF000C7F8F830D7F8F4301B68DB6823F41641B8
:103B000021F00C01D7F8F4301A68D7F8F8300B43DD
:103B1000D360D7F8F4301B685B6923F44070D7F8A2
:103B2000F4309969D7F8F4301A6840EA0103536118
:103B3000D7F8F4301A688F4B9A4205D0D7F8F43092
:103B40001A688D4B9A4204D1FEF76EFEC7F8FC004E
:103B500003E0FEF755FEC7F8FC00D7F8F430DB6948
:103B6000B3F5004F40F00C81D7F8FC300022C7F8C5
:103B7000E830C7F8EC20D7E93A4522462B469118A1
:103B8000B9655B41FB65D7E91623214612EB0108B5
:103B9000294643EB01094FF000024FF000034FEAC2
:103BA000C90343EA58734FEAC80290469946234630
:103BB00018EB0303C7F8E0302B4649EB0303C7F8C3
:103BC000E430D7F8F4305B680022C7F8D830C7F883
:103BD000DC20D7E936120B46DB183B65134642EB77
:103BE00003037B65D7E91423D7E93801FDF74CF8C7
:103BF00002460B46614BA3FB02235B091C01D7F86D
:103C0000FC300022C7F8D030C7F8D420D7E9348977
:103C100042464B469118B9645B41FB64D7E91223D5
:103C2000414612EB010A494643EB010B4FF00002FB
:103C30004FF000034FEACB0343EA5A734FEACA023C
:103C400092469B4643461AEB0303C7F8C8304B46DF
:103C50004BEB0303C7F8CC30D7F8F4305B68002295
:103C6000C7F8C030C7F8C420D7E930120B46DB18BC
:103C70003B64134642EB03037B64D7E91023D7E987
:103C80003201FDF701F802460B4611463B4BA3FB00
:103C900001235B09642202FB03F3CB1ADB0003F16F
:103CA0003202364BA3FB02235B095B0003F4F8737B
:103CB0001C44D7F8FC300022C7F8B830C7F8BC2045
:103CC000D7E92E8942464B469118B9635B41FB63A5
:103CD000D7E90E2341465118396349464B417B636E
:103CE0004FF000024FF00003D7E90CAB5946CB0070
:103CF000514643EA51735146CA00104619460346DD
:103D000042469B18C7F8B0304B460A4642EB0303C5
:103D1000C7F8B430D7F8F4305B680022C7F8A83091
:103D2000C7F8AC20D7E92A120B46DB18BB62134652
:103D300042EB0303FB62D7E90A23D7E92C01FCF726
:103D4000A3FF02460B460D4BA3FB02135B09642144
:103D500001FB03F3D31ADB003233084AA2FB03232F
:103D60005B0903F00702D7F8F4301B6822449A601D
:103D700006E100BF00100140001401401F85EB5117
:103D8000D7F8FC300022C7F8A030C7F8A420D7E944
:103D9000288942464B46911839625B417B62D7E9DC
:103DA000082341465418494643EB01054FF00002F1
:103DB0004FF00003EB0043EA5473E20014461D4643
:103DC0004346E318C7F898304B4645EB0303C7F862
:103DD0009C30D7F8F4305B680022C7F89030C7F801
:103DE00094204FF000024FF00003D7E92445294604
:103DF0008B00214643EA917321468A00D7E92601C8
:103E0000FCF742FF02460B46604BA3FB02235B0913
:103E10001C01D7F8FC300022C7F88830C7F88C2086
:103E2000D7E9228942464B469118B9615B41FB6153
:103E3000D7E9062341465118396149464B417B6118
:103E40004FF000024FF00003D7E904AB5946CB0016
:103E5000514643EA51735146CA001046194603467B
:103E600042469B18C7F880304B460A4642EB030394
:103E7000C7F88430D7F8F4305B680022BB67FA6774
:103E80004FF000024FF00003D7E91E8949468B002E
:103E9000414643EA917341468A00D7E92001FCF785
:103EA000F3FE02460B461146384BA3FB01235B0988
:103EB000642202FB03F3CB1A1B013233334AA2FB09
:103EC00003235B0903F0F0031C44D7F8FC30002205
:103ED0003B677A67D7E91C8942464B469118B9601F
:103EE0005B41FB60D7E902234146511839604946DE
:103EF0004B417B604FF000024FF00003D7E900AB6D
:103F00005946CB00514643EA51735146CA00104608
:103F10001946034642469B18BB664B460A4642EB8F
:103F20000303FB66D7F8F4305B6800223B667A66D1
:103F30004FF000024FF00003D7E9188949468B0083
:103F4000414643EA917341468A00D7E91A01FCF7DA
:103F50009BFE02460B460D4BA3FB02135B0964213B
:103F600001FB03F3D31A1B013233084AA2FB0323DC
:103F70005B0903F00F02D7F8F4301B6822449A6003
:103F800000BF07F58077BD46BDE8B08F1F85EB51B8
:103F900080B584B000AF78607B68FB60FB681B680D
:103FA0001946034801F094F800BF1037BD4680BDA4
:103FB0009889000880B400AF00231846BD465DF81C
:103FC000047B704780B582B002AF00F047F805234C
:103FD00001934FF47A7300934FF47A73044A0549BE
:103FE000002000F0B9F800231846BD4680BD00BF90
:103FF0000C000020913F000880B500AFFFF7DAFF0A
:10400000FFF7E0FF00BF80BD0FB480B582B000AF06
:1040100007F114033B6000237B600AE03B681A1D34
:104020003A601B68DBB2184600F0E6F87B680133A3
:104030007B607A683B699A42F0DB00BF00BF0837BB
:10404000BD46BDE8804004B0704780B500AF042293
:1040500002210220FFF7D8FF00BF80BD80B483B0EB
:1040600000AF00237B600FE0144A7B685B011344C0
:1040700000221A70114A7B685B0113441C33002232
:104080001A607B6801337B607B683F2BECDD00238B
:104090003B6007E00A4A3B68002142F823103B6876
:1040A00001333B603B68032BF4DD064B00221A60B2
:1040B00000BF0C37BD465DF8047B7047EC0600205E
:1040C000DC060020D806002080B400AF044B1B683B
:1040D0000133034A136000BFBD465DF8047B70479F
:1040E000D806002080B400AF034B1B681846BD46BD
:1040F0005DF8047B704700BFD806002080B483B011
:1041000000AF00237B601BE0124A7B685B01134415
:104110001B78002B11D10F4A7B685B0113440122ED
:104120001A700C4A7B685B0113441C3300221A602E
:104130007B685B01074A134406E07B6801337B60C0
:104140007B683F2BE0DD002318460C37BD465DF849
:10415000047B7047EC06002080B586B000AFB960E4
:104160007A603B600346FB73FB7B032B02D8BB6882
:10417000002B01D100232AE0FFF7C0FF78617B69A3
:10418000002B01D1002322E0FFF7ACFF38617B69EF
:104190003A695A603A693B681A447B699A607B695C
:1041A0003A6ADA607B697A6A1A617B69BA685A612D
:1041B0007B697A689A61FB7B074A52F823207B6906
:1041C000DA61FB7B04497A6941F823200123184610
:1041D0001837BD4680BD00BFDC06002080B483B028
:1041E00000AF786039607A683B68D31A18460C379C
:1041F000BD465DF8047B704780B584B000AF0346D0
:10420000FB71FB79032B37D8FFF76CFFB860FB79A4
:104210001B4A52F82330FB602AE0FB681B78002B16
:1042200023D0FB681B69002B1FD0FB689B681946D5
:10423000B868FFF7D3FF0346002B16DBFB685B690A
:10424000FA68926910469847FB681B69B3F1FF3F13
:1042500004D0FB681B695A1EFB681A61FB689A68E8
:10426000FB68DB681A44FB689A60FB68DB69FB60EB
:10427000FB68002BD1D100E000BF1037BD4680BDE8
:10428000DC0600202DE9FF4757EC106B002F0C4691
:1042900019463B46BBBF07F100431F4600232D23B1
:1042A0000B700D9BDDF830A0914623F02008BCBFB9
:1042B00032461646B8F1460F05D0B8F1450F00D189
:1042C0000134022100E0032103AB019302AB009310
:1042D00047EC106B5346224601F082F8B8F1470FC5
:1042E000054619D119F0010F0ED000EB0409002288
:1042F000002330463946FCF7E7FB08B1CDF80C90B7
:104300003022039B4B451ED3039B0E9A5B1B284612
:10431000136004B0BDE8F087B8F1460F00EB040964
:10432000E5D10378302B0AD10022002330463946EC
:10433000FCF7CAFB18B9C4F10104CAF80040DAF866
:1043400000309944D3E7591C03911A70D9E7F7B5A7
:104350000029BABF49422D232B230929027043703B
:1043600029DD0DF107031D460A271A46B1FBF7F6B2
:1043700007FB1614303402F8014C0C46632C03F191
:10438000FF333146F1DC3031941E03F8011C411C2F
:104390002346AB420AD30DF109039B1AAC4288BFF6
:1043A000002302330344181A03B0F0BD13F8016B65
:1043B00001F8016FEDE7302330318370C170031DC8
:1043C000F1E700002DE9F04F8DB00C46DDF8588084
:1043D00016461F46054600F0FBFE03680493184688
:1043E000FBF746FF00230A93D8F800300590073307
:1043F00023F0070303F1080294F818A0D4F800B0E2
:10440000C8F80020D3E9008929F000430793CDF8CC
:104410001880C4E91289DDE906019C4B4FF0FF3298
:10442000FCF784FB70BBDDE90601984B4FF0FF32CF
:10443000FCF75EFB30BB0022002340464946FCF7F8
:104440004DFB10B12D2384F84330914A914BBAF1C2
:10445000470F8CBF90469846032323612BF004033B
:1044600023604FF00009009733460BAA21462846E7
:1044700000F0D2F9013040F08D804FF0FF300DB0E8
:10448000BDE8F08F42464B4640464946FCF74EFB9E
:1044900040B14B46002BBCBF2D2384F843307E4AED
:1044A0007E4BD4E763680AF0DF0206925A1C3BD1C8
:1044B000062363604BF480620023226003930AABFF
:1044C000CDE901A309AB0093616849EC108B0DF1B4
:1044D00023032846FFF7D6FE069B0999472B804603
:1044E00029D1C81C02DB6368994241DDAAF1020AA6
:1044F0005FFA8AFA0139524604F150000991FFF738
:1045000026FF0A9A1318012A8146236102DC2268D9
:10451000D20701D5013323619DF82330002BA2D0AF
:104520002D2384F843309EE7069A472AC2D1002BF8
:10453000C0D10123BDE7BAF1650FDBD9BAF1660F2F
:1045400018D1002963680BDD216113B92268D007F7
:1045500002D501330B442361A1654FF00009DBE76D
:1045600013B92268D20701D50233F4E70123F2E739
:104570004FF0670A0A9B994205DB23682161D8073F
:10458000EAD54B1CE7E70029D4BFC1F102020122A2
:104590001344E0E723685A0507D4236942463146AD
:1045A0002846B84701302BD167E7BAF1650F40F2D2
:1045B000DD80D4E9120100220023FCF785FA0028EF
:1045C00033D0374A012331462846B84701303FF4FB
:1045D00054AFDDE90938434502DB2368D8070FD51E
:1045E000DDE9042331462846B84701303FF445AFA2
:1045F0004FF0000908F1FF3804F11A0AC84509DC38
:1046000023689B0700F10381E0680B9B9842B8BFC9
:10461000184634E70123524631462846B847013050
:104620003FF42BAF09F10109E8E7099B002B39DCC6
:104630001B4A012331462846B84701303FF41DAFDD
:10464000DDE9093959EA030302D12368D907D7D52F
:10465000DDE9042331462846B84701303FF40DAF69
:104660004FF0000A04F11A0B099B5B42534501DC31
:104670004B4693E701235A4631462846B847013056
:104680003FF4FBAE0AF1010AEEE700BFFFFFEF7F48
:10469000C8890008C4890008D0890008CC890008AE
:1046A000D4890008A36DDDF828A05345A8BF534660
:1046B000002B994636DC4FF0000B29EAE97904F12A
:1046C0001A02A36D0693A3EB09035B4531DC099B3A
:1046D0009A453ADC2368DA0737D4099BAAEB030929
:1046E000069BAAEB03039945A8BF9946B9F1000FB1
:1046F00033DC4FF0000829EAE97904F11A0B099B31
:10470000AAEB0303A3EB090343457FF779AF01232A
:104710005A4631462846B84701303FF4AEAE08F15C
:104720000108ECE7424631462846B8470130C2D17D
:10473000A3E60123314628460692B84701303FF4EC
:104740009CAE069A0BF1010BBBE7DDE90423314671
:104750002846B8470130C0D18FE6069A4B464244FE
:1047600031462846B8470130C3D186E6DDF828A097
:10477000BAF1010F01DCDB0736D501234246314691
:104780002846B84701303FF478AEDDE904233146CE
:104790002846B84701303FF470AED4E91201002238
:1047A00000230AF1FF3AFCF78FF9C0B9534608F12C
:1047B000010231462846B84701300CD15DE601239D
:1047C0005A4631462846B84701303FF456AE08F104
:1047D0000108D045F3DB4B4604F15002DFE64FF011
:1047E000000804F11A0BF4E701234246E1E7012334
:1047F0004A4631462846B84701303FF43EAE08F1FC
:104800000108E3680B995B1A4345F0DCFCE64FF0C6
:10481000000804F11909F4E72DE9F0471646984617
:104820008A680B69DDF820909342B8BF1346336065
:1048300091F8432007460C460AB1013333602368E0
:10484000990642BF336802333360256815F00605C8
:1048500006D104F1190AE36832689B1AAB4226DCE0
:1048600094F843302268003B18BF012392062BD4F2
:1048700004F1430241463846C84701301ED0236840
:10488000226903F00603042B02BFE5683368ED1AC2
:10489000A3680CBF25EAE57500259342C4BF9B1AA7
:1048A000ED1800261A34B5421AD1002008E0012381
:1048B000524641463846C847013003D14FF0FF30D9
:1048C000BDE8F0870135C6E7E1185A1C302081F8B1
:1048D0004300224494F8451082F843100233C7E79E
:1048E0000123224641463846C8470130E6D001360A
:1048F000D9E700002DE9FF470F7E0C9E782F9146E7
:1049000080460C469A4601F1430207D8622F0AD826
:10491000002F00F0D180582F00F0B88004F142063B
:1049200084F842703AE0A7F16303152BF6D801A191
:1049300051F823F08D490008A14900081D490008DD
:104940001D4900081D4900081D490008A14900082B
:104950001D4900081D4900081D4900081D4900089F
:104960009F4A0008CB490008594A00081D49000821
:104970001D490008C14A00081D490008CB4900082C
:104980001D4900081D490008614A000833681A1DC6
:104990001B68326004F1420684F8423001239CE037
:1049A00033682068191D3160060601D51D6803E0D3
:1049B0004506FBD5B3F90050002D03DA2D236D42D7
:1049C00084F8433058480A2311E021683368080608
:1049D00053F8045B02D4490648BFADB26F2F52486A
:1049E000336014BF0A230823002184F8431066684B
:1049F000A660002E05DB21682E4321F00401216012
:104A00004BD01646B5FBF3F103FB1157C75D06F813
:104A1000017D2F46BB420D46F4D9082B0BD12368EC
:104A2000DF0708D5236961689942DEBF302306F8A5
:104A3000013C06F1FF36921B2261CDF800A04B46E7
:104A400003AA21464046FFF7E7FE01304AD14FF066
:104A5000FF3004B0BDE8F087236843F020032360F3
:104A60003248782784F84570236831681F0651F86A
:104A7000045B02D45F0648BFADB23160D90744BFC2
:104A800043F0200323601DB11023ADE72648E9E77A
:104A9000236823F020032360F6E71646BDE733685A
:104AA00025686169181D30602E061B6801D51960E4
:104AB00002E06806FBD51980002323611646BCE797
:104AC00033681A1D32601E68626800213046FBF7A9
:104AD0007FFB08B1801B606063682361002384F85A
:104AE0004330AAE72369324649464046D047013061
:104AF000ADD023689B0713D4E068039B9842B8BFEE
:104B00001846A6E70123324649464046D0470130C1
:104B10009DD00135E36803995B1AAB42F2DCEBE709
:104B2000002504F11906F5E7D6890008E789000891
:104B30002DE9F04F87B0914603938B685A1EB2F56A
:104B4000AE7F81BF6FF4AE7503EB050B40F25D13D2
:104B50008B600B680A464FF0000543F4F06342F89F
:104B60001C3BCDE9045580460C4698BF4FF0000B26
:104B700001921646AA462F460295A2685AB1D9F864
:104B800000301B784E2B63D8402B3BD8A3F12B0170
:104B9000C8B20E2839D91FB1236823F4807323606B
:104BA0000AF1FF3ABAF1010F00F21481019B9E4213
:104BB00000F20581012007B0BDE8F08FA3F161028A
:104BC0000D2AE8D801A151F822F000BF154D0008C8
:104BD000974B0008974B0008974B0008714D000851
:104BE0004B4D0008974B0008974B0008234D0008D9
:104BF000974B0008974B0008974B0008974B00080D
:104C0000DF4C0008A3F14102DAE70E29C3D801A066
:104C100050F821F0CF4C0008974B0008CF4C00080B
:104C20005F4D0008974B0008714C0008B54C000818
:104C3000B54C0008B54C0008B54C0008B54C000850
:104C4000B54C0008B54C0008B54C0008B54C000840
:104C50006E2B09D8602BB1D8542B7BD0592B9AD10D
:104C6000072D98D108252FE0742B73D0792BF6E708
:104C70002168C8051ED521F0800121600137BBF1F4
:104C8000000F03D001320BF1FF3BA260A368013B90
:104C9000A360236901332361D9F80430013B002B61
:104CA000C9F8043040F38280D9F800300133C9F8E4
:104CB000003062E71AEB05017FF46DAF226822F441
:104CC000C07222600D468A4606F8013BDEE7226884
:104CD00010067FF560AF22F080022260F4E7BAF19F
:104CE000000F0CD177B9226802F4E061B1F5E06FF2
:104CF00008D122F4F06222604FF0010AE4E7BAF131
:104D0000020F50D0012D02D0042D7FF444AF0135A5
:104D1000EDB2D9E7BAF1010F7FF43DAF4FF0020ACF
:104D2000D2E775B9002F7FF437AF226802F4E06153
:104D3000B1F5E06F40F0038122F4F06222600125BA
:104D4000C2E7032DE3D0052DDFE7022D7FF423AF6B
:104D50000325B9E7062D7FF41EAF0725B4E72268C7
:104D600091057FF518AF22F4207222600297ABE71D
:104D7000226802F4A061B1F5806F05D050057FF57F
:104D80000AAF002F00F0DB80910558BF029922F492
:104D9000F06258BF791A42F4C07258BFCDE90416C8
:104DA0002260002790E74FF0030A8DE7D4F88031A6
:104DB00049464046984700283FF4DFAEEBE6D4F87A
:104DC0007C3116F8011D4A46404698472369013B4D
:104DD0002361EBE66B1E062B24D8022D36D8019BEF
:104DE0009E427FF6E7AED4F87C3116F8011D4A46A4
:104DF000404698472369013B2361F0E7D4F87C31B2
:104E00001BF8011D4A46404698472369013B236130
:104E10000AF1FF3A5FFA8AFABAF1020FEED1033DC6
:104E2000EDB2761B2368DA0530D55B0511D5019B01
:104E30009E427FF6BFAED4F87C3116F8011D4A467B
:104E4000404698472369013B2361F0E7AA46B346F1
:104E5000DEE716F8011C2369652903F1FF3306F12B
:104E6000FF3523610CD045290AD0D4F87C314A465D
:104E700040469847236916F8021C013BB51E236182
:104E8000D4F87C314A46404698472E46226812F0B4
:104E9000100201D000208EE63270236803F4C06354
:104EA000B3F5806F25D1029B9F420AD0DA1B04F232
:104EB0006F139E4228BF04F5B7762249304600F0B2
:104EC00019F901990022404602F006FC039B216873
:104ED0001B6811F0020F57EC106B03F1040215D0A0
:104EE00003990A601B68C3E90067E3680133E36064
:104EF000D0E7049B002BE4D005990A2301314046FA
:104F000002F06AFC049B059EC21AD0E711F0040F60
:104F100003990A60E6D11D6832463B463046394661
:104F2000FBF704FE28B1084800F0CAF985ED000A35
:104F3000DBE730463946FBF757FE2860D5E7002708
:104F40002EE600BFF8890008398B0008002310B551
:104F50000446C0E90033C0E90433836081814366BD
:104F6000C2818361194608225C3000F028F90D4B9C
:104F700063620D4BA3620D4BE3620D4B23630D4B3C
:104F800024629C4206D003F16802944202D0D033DE
:104F90009C4205D104F15800BDE8104000F08CB9E6
:104FA00010BD00BF395100085B5100089351000843
:104FB000B7510008EC0E0020024A0349034800F0F4
:104FC00069B800BF10000020197E000820000020F2
:104FD00041680C4B994210B5044601D002F01CFF09
:104FE000A168094B994202D0204602F015FFE16802
:104FF000064B994204D02046BDE8104002F00CBF99
:1050000010BD00BFEC0E0020540F0020BC0F00208C
:1050100010B50B4B0B4C0C4A1A60204600220421A1
:10502000FFF794FF04F1680001220921FFF78EFFCA
:1050300004F1D0000222BDE810401221FFF786BF24
:1050400024100020EC0E0020B94F0008014800F0A9
:1050500034B900BF2D100020014800F02FB900BF67
:105060002D10002010B50446FFF7F0FF236A1BB196
:10507000BDE81040FFF7F0BF044B2362044B1B68F0
:10508000002BF5D1FFF7C4FFF2E700BFD14F0008B6
:10509000241000202DE9F8430746884614460026D0
:1050A000D4E90195B9F1010905D52468002CF7D19F
:1050B0003046BDE8F883AB89012B07D9B5F90E302E
:1050C000013303D029463846C04706436835E9E72F
:1050D0000FB407B5064904AB086853F8042B816880
:1050E000019302F0FDFC03B05DF804EB04B07047DF
:1050F0001C0000200EB410B59DB01FAB02900690AE
:105100006FF000410A48079104910A4953F8042BB3
:105110000591002402A9006801931B9402F0BAFBD8
:10512000029B1C701DB0BDE8104003B0704700BF6B
:105130001C0000200802FFFF10B50C46B1F90E104C
:1051400000F06CF80028ABBF636DA3891B1823F433
:105150008053ACBF6365A38110BD2DE9F0411F46AC
:105160008B89DB0505460C46164605D5B1F90E10B0
:105170000223002200F040F8A389B4F90E1023F4B2
:105180008053A38132463B462846BDE8F04100F0FB
:1051900057B810B50C46B1F90E1000F02DF8431CAD
:1051A000A38915BF606523F4805343F48053A38122
:1051B00018BFA38110BDB1F90E1000F00DB8024464
:1051C0000346934200D1704703F8011BF9E7000042
:1051D000004870475C01002038B5064D00230446A6
:1051E00008462B60FCF7E8F8431C02D12B6803B19A
:1051F000236038BD2810002038B5074D0446084606
:10520000114600222A601A46FCF7FDF8431C02D121
:105210002B6803B1236038BD2810002038B5074D36
:1052200004460846114600222A601A46FCF78BF80D
:10523000431C02D12B6803B1236038BD2810002025
:1052400038B5074D04460846114600222A601A4622
:10525000FCF796F8431C02D12B6803B1236038BDDC
:1052600028100020014B1868704700BF1C00002068
:1052700070B50D4D0D4C641BA4100026A64209D13B
:105280000B4D0C4C03F07AFB641BA4100026A642C5
:1052900005D170BD55F8043B98470136EEE755F847
:1052A000043B98470136F2E7F48D0008F48D0008BE
:1052B000F48D0008F88D00087047704770470000B3
:1052C0009FED010A704700BF0000C07F2DE9F74F36
:1052D00003690C69A34207467EDB013C01F1140817
:1052E000A30000F11405009305EB8403019358F823
:1052F000243055F8242001339A4208EB8409B2FB8C
:10530000F3F62ED34FF0000AC446AE46D3465CF8FF
:10531000043B98B206FB00A0020C1B0C06FB032307
:10532000DEF8002080B292B2121A5A44DEF8000071
:105330004FEA134A9BB2C3EB224303EB104392B2F2
:1053400042EA0342E1454EF8042B4FEA234BDED2FA
:10535000009BEB582BB9019B043B9D421A462FD36F
:105360003C61384601F0C8F9002825DB29460020B9
:1053700058F8042BD1F800C01FFA82FE1FFA8CF3F4
:10538000A3EB0E030344120CC2EB234202EB1C42BC
:105390009BB243EA0243C14541F8043B4FEA224035
:1053A000E6D255F8242005EB840322B9043B9D4244
:1053B0001A460BD33C610136304603B0BDE8F08F8E
:1053C0001268043B002ACBD1013CC6E71268043BBB
:1053D000002AEFD1013CEAE70020EEE700000000E0
:1053E0002DE9F04FC76997B08DED040B55EC104BCC
:1053F000209E079181460C9211937FB9102000F0F6
:1054000009FE0246C9F81C0020B9A94BEF21A948A2
:1054100002F012FEC0E901770760C760D9F81C30BE
:10542000196859B15A684A60012393408B60484615
:1054300000F0E6FED9F81C3000221A602B1EB9BF1E
:1054400023F00043059300233360059F9A4BBCBFB4
:1054500001223260BB4312D1119A42F20F731360E2
:10546000C7F31303234300F05A85219BDFF85CA2A6
:10547000002B00F05C850AF1030300F056BD9DEDA2
:10548000047B002251EC170B00238DED0A7BFBF708
:105490001BFB804658B1119A01231360219B13B165
:1054A000219A864B1360DFF828A200F040BD9DEDE5
:1054B0000A0B14AA15A9484601F03EFAC7F30A568A
:1054C0000290002E78D00B9BCDF84880C3F31303D5
:1054D000DDE90A0143F07F5343F44013A6F2FF369F
:1054E00019460022764BFAF7CFFE6BA3D3E90023CF
:1054F000FBF782F86AA3D3E90023FAF7C7FE044654
:1055000030460D46FBF70EF867A3D3E90023FBF7FF
:1055100073F802460B4620462946FAF7B7FE0446C2
:105520000D46FBF719FB00220746002320462946BB
:10553000FBF7D4FA40B13846FAF7F4FF22462B467F
:10554000FBF7C2FA00B9013F162F52D85D4B03EBAF
:10555000C703D3E90023DDE90A01FBF7BFFA0028FE
:1055600049D0013F00231093149B9B1B5A1E45BF3B
:10557000C3F10103009300230023069254BF00935C
:105580000693002F39DB069B0D973B4406930023BF
:105590000893079B092B63D8052BC4BF043B0793D3
:1055A000079BA3F10203CCBF00240124032B63D883
:1055B000DFE803F05254372BDDE914631E4406F292
:1055C0003243202BC1BFC3F140039F4006F2124378
:1055D00024FA03F3D6BFC3F1200347EA030004FA19
:1055E00003F0FAF78FFF0122A1F1F873013E129246
:1055F00076E70123B7E71090B6E7009BDB1B00932B
:105600007B42089300230D93C3E7012309930C9B6E
:1056100007EB030B0BF10103012B0393B8BF01232D
:1056200006E0012309930C9B002B28DD9B46039386
:10563000D9F81C000021042202F114059D4226D94C
:105640004160484600F09CFD8246002842D11E4B36
:10565000024640F2AF11DAE60023E3E70023D5E784
:1056600001240023079309944FF0FF3B0022CDF85B
:105670000CB012230C92DBE701230993F4E74FF0FF
:10568000010BCDF80CB05B46CDF830B0D0E701315E
:105690005200D1E7AFF3008061436F63A787D23F29
:1056A000B3C8608B288AC63FFB799F501344D33F11
:1056B0000A8A0008218A00080000F07FD5890008C6
:1056C0000000F83FD08B0008798A0008068A00089D
:1056D000D4890008D9F81C301860039B0E2B00F207
:1056E000A180002C00F09E80002F33DD9C4B07F042
:1056F0000F0203EBC20393ED007BF8058DED0E7BEB
:105700004FEA271416D5974BDDE90A01D3E90823A0
:10571000FBF79CF8CDE9040104F00F040326914D3A
:1057200054B9DDE90E23DDE90401FBF78FF8CDE97B
:10573000040128E00226F2E7E10708D5DDE90E01C1
:10574000D5E90023FAF758FFCDE90E0101366410C0
:105750000835E5E700F0AF807C42814B814D04F0D5
:105760000F0203EBC203D3E90023DDE90A01FAF7D4
:1057700043FFCDE90401241100230226002C40F050
:105780008F80002BD3D1109BDDE90445002B00F066
:105790009480754B002220462946FBF79FF900288C
:1057A00000F08B80039B002B00F08780BBF1000F83
:1057B00034DD20466D4B00222946FAF71DFFCDE966
:1057C000040107F1FF3801365C463046FAF7AAFEBD
:1057D000DDE90423FAF710FF654B0022FAF756FDC6
:1057E0000546A1F15076002C6AD1DDE90401614B38
:1057F0000022FAF749FD02460B46CDE904232A466A
:105800003346FBF789F9002840F09882DDE904016E
:105810002A4606F10043FBF761F938BBDDE90A349B
:10582000CDE90434159B002BC0F257810E2F00F3F5
:1058300054814B4B03EBC70393ED007B0C9B002B78
:105840008DED007B80F2E580039B002B00F3E1806F
:105850000CD1484B002251EC170BFAF7CDFEDDE9D5
:105860000423FBF74FF9002800F066820024254648
:105870000C9B56466FEA030800272146484600F075
:10588000BFFC002D00F0BD802FB1AF4203D03946E0
:10589000484600F0B5FC2946484600F0B1FCB0E0AF
:1058A000E20705D5D5E90023FAF7A6FE0136012364
:1058B0006410083562E7022665E7039CB84684E772
:1058C000274B099903EBC40353E9022354440029ED
:1058D00054D029490020FAF7B9FF33462A46FAF78F
:1058E000D3FCCDE90E015646DDE90401FBF734F99E
:1058F0000546FAF717FE02460B46DDE90401FAF702
:10590000C3FC303502460B46CDE9042306F8015BA3
:10591000DDE90E23FBF7E2F8002872D1DDE904236C
:1059200011490020FAF7B0FCDDE90E23FBF7D6F8A9
:10593000002840F0B480A6423FF470AFDDE90E01CC
:105940000A4B0022FAF758FE084BCDE90E0100225F
:10595000DDE90401FAF750FECDE90401C4E700BF18
:10596000D08B0008A88B00080000F03F0000244006
:1059700000001C40000014400000E03F3146284673
:10598000FAF73AFECDE90E0113945646DDE904011B
:10599000FBF7E2F80546FAF7C5FD02460B46DDE9DE
:1059A0000401FAF771FC303506F8015B02460B463C
:1059B000A642CDE904234FF0000224D1AF4BDDE92C
:1059C0000E01FAF763FC02460B46DDE90401FBF722
:1059D000A3F8002863D1DDE90E23A8490020FAF7D7
:1059E00053FC02460B46DDE90401FBF777F800287B
:1059F0003FF414AF139E731E139316F8013C302B23
:105A0000F8D047463BE09E4BFAF7F6FDCDE904019E
:105A1000BCE7DDE904455646DDE90023204629467A
:105A2000FAF714FFFBF798F88046FAF77BFDDDE9FB
:105A30000023FAF7E1FD02460B462046294608F10D
:105A40003004FAF721FC06F8014B039DA6EB0A048B
:105A5000A54202460B4633D1FAF718FCDDE90023D4
:105A600004460D46FBF758F8C0B9DDE9002320468F
:105A70002946FBF729F810B118F0010F0ED1029951
:105A8000484600F0BDFB00233370119B01371F60B7
:105A9000219B002B00F04B821E6048E2B846334643
:105AA0001E4613F8012D392A06D19A45F8D1302225
:105AB00008F101088AF800201A7801321A70A0E76C
:105AC0006F4B0022FAF798FD0022002304460D4692
:105AD000FAF7FAFF00289FD0D1E7099A002A00F0D0
